{
    "abi": [
        {
            "type": "constructor",
            "inputs": [
                {
                    "name": "_forwarderAddress",
                    "type": "address",
                    "internalType": "address"
                },
                {
                    "name": "_usdcAddress",
                    "type": "address",
                    "internalType": "address"
                },
                {
                    "name": "_verifier",
                    "type": "address",
                    "internalType": "contract IWorldIDVerifier"
                },
                {
                    "name": "_worldIdVerificationEnabled",
                    "type": "bool",
                    "internalType": "bool"
                }
            ],
            "stateMutability": "nonpayable"
        },
        {
            "type": "function",
            "name": "EXECUTION_PRICE_PRECISION",
            "inputs": [],
            "outputs": [
                {
                    "name": "",
                    "type": "uint256",
                    "internalType": "uint256"
                }
            ],
            "stateMutability": "view"
        },
        {
            "type": "function",
            "name": "MAX_PLAYERS",
            "inputs": [],
            "outputs": [
                {
                    "name": "",
                    "type": "uint16",
                    "internalType": "uint16"
                }
            ],
            "stateMutability": "view"
        },
        {
            "type": "function",
            "name": "MAX_STARTING_WIP_BALANCE",
            "inputs": [],
            "outputs": [
                {
                    "name": "",
                    "type": "uint256",
                    "internalType": "uint256"
                }
            ],
            "stateMutability": "view"
        },
        {
            "type": "function",
            "name": "MIN_PLAYERS",
            "inputs": [],
            "outputs": [
                {
                    "name": "",
                    "type": "uint16",
                    "internalType": "uint16"
                }
            ],
            "stateMutability": "view"
        },
        {
            "type": "function",
            "name": "MIN_STARTING_WIP_BALANCE",
            "inputs": [],
            "outputs": [
                {
                    "name": "",
                    "type": "uint256",
                    "internalType": "uint256"
                }
            ],
            "stateMutability": "view"
        },
        {
            "type": "function",
            "name": "USDC",
            "inputs": [],
            "outputs": [
                {
                    "name": "",
                    "type": "address",
                    "internalType": "contract IERC20"
                }
            ],
            "stateMutability": "view"
        },
        {
            "type": "function",
            "name": "claimGame",
            "inputs": [
                {
                    "name": "gameId",
                    "type": "uint256",
                    "internalType": "uint256"
                }
            ],
            "outputs": [
                {
                    "name": "payout",
                    "type": "uint256",
                    "internalType": "uint256"
                }
            ],
            "stateMutability": "nonpayable"
        },
        {
            "type": "function",
            "name": "createGame",
            "inputs": [
                {
                    "name": "entryAmount",
                    "type": "uint256",
                    "internalType": "uint256"
                },
                {
                    "name": "startingWIPBalance",
                    "type": "uint256",
                    "internalType": "uint256"
                },
                {
                    "name": "maxPlayers",
                    "type": "uint16",
                    "internalType": "uint16"
                },
                {
                    "name": "startTime",
                    "type": "uint256",
                    "internalType": "uint256"
                },
                {
                    "name": "endTime",
                    "type": "uint256",
                    "internalType": "uint256"
                }
            ],
            "outputs": [
                {
                    "name": "gameId",
                    "type": "uint256",
                    "internalType": "uint256"
                }
            ],
            "stateMutability": "nonpayable"
        },
        {
            "type": "function",
            "name": "getExpectedAuthor",
            "inputs": [],
            "outputs": [
                {
                    "name": "",
                    "type": "address",
                    "internalType": "address"
                }
            ],
            "stateMutability": "view"
        },
        {
            "type": "function",
            "name": "getExpectedWorkflowId",
            "inputs": [],
            "outputs": [
                {
                    "name": "",
                    "type": "bytes32",
                    "internalType": "bytes32"
                }
            ],
            "stateMutability": "view"
        },
        {
            "type": "function",
            "name": "getExpectedWorkflowName",
            "inputs": [],
            "outputs": [
                {
                    "name": "",
                    "type": "bytes10",
                    "internalType": "bytes10"
                }
            ],
            "stateMutability": "view"
        },
        {
            "type": "function",
            "name": "getForwarderAddress",
            "inputs": [],
            "outputs": [
                {
                    "name": "",
                    "type": "address",
                    "internalType": "address"
                }
            ],
            "stateMutability": "view"
        },
        {
            "type": "function",
            "name": "getGame",
            "inputs": [
                {
                    "name": "gameId",
                    "type": "uint256",
                    "internalType": "uint256"
                }
            ],
            "outputs": [
                {
                    "name": "",
                    "type": "tuple",
                    "internalType": "struct WorldInPaper.GameView",
                    "components": [
                        {
                            "name": "id",
                            "type": "uint256",
                            "internalType": "uint256"
                        },
                        {
                            "name": "entryAmount",
                            "type": "uint256",
                            "internalType": "uint256"
                        },
                        {
                            "name": "startingWIPBalance",
                            "type": "uint256",
                            "internalType": "uint256"
                        },
                        {
                            "name": "startTime",
                            "type": "uint256",
                            "internalType": "uint256"
                        },
                        {
                            "name": "endTime",
                            "type": "uint256",
                            "internalType": "uint256"
                        },
                        {
                            "name": "maxPlayers",
                            "type": "uint16",
                            "internalType": "uint16"
                        },
                        {
                            "name": "playerCount",
                            "type": "uint16",
                            "internalType": "uint16"
                        },
                        {
                            "name": "creator",
                            "type": "address",
                            "internalType": "address"
                        },
                        {
                            "name": "exists",
                            "type": "bool",
                            "internalType": "bool"
                        }
                    ]
                }
            ],
            "stateMutability": "view"
        },
        {
            "type": "function",
            "name": "getGamePlayers",
            "inputs": [
                {
                    "name": "gameId",
                    "type": "uint256",
                    "internalType": "uint256"
                }
            ],
            "outputs": [
                {
                    "name": "",
                    "type": "address[]",
                    "internalType": "address[]"
                }
            ],
            "stateMutability": "view"
        },
        {
            "type": "function",
            "name": "getGameRanking",
            "inputs": [
                {
                    "name": "gameId",
                    "type": "uint256",
                    "internalType": "uint256"
                }
            ],
            "outputs": [
                {
                    "name": "ranking",
                    "type": "tuple[]",
                    "internalType": "struct WorldInPaper.GameRankingEntryView[]",
                    "components": [
                        {
                            "name": "player",
                            "type": "address",
                            "internalType": "address"
                        },
                        {
                            "name": "place",
                            "type": "uint256",
                            "internalType": "uint256"
                        },
                        {
                            "name": "wipBalance",
                            "type": "uint256",
                            "internalType": "uint256"
                        }
                    ]
                }
            ],
            "stateMutability": "view"
        },
        {
            "type": "function",
            "name": "getGameTradeCount",
            "inputs": [
                {
                    "name": "gameId",
                    "type": "uint256",
                    "internalType": "uint256"
                }
            ],
            "outputs": [
                {
                    "name": "",
                    "type": "uint256",
                    "internalType": "uint256"
                }
            ],
            "stateMutability": "view"
        },
        {
            "type": "function",
            "name": "getGameTrades",
            "inputs": [
                {
                    "name": "gameId",
                    "type": "uint256",
                    "internalType": "uint256"
                }
            ],
            "outputs": [
                {
                    "name": "",
                    "type": "tuple[]",
                    "internalType": "struct WorldInPaper.Trade[]",
                    "components": [
                        {
                            "name": "id",
                            "type": "uint256",
                            "internalType": "uint256"
                        },
                        {
                            "name": "trader",
                            "type": "address",
                            "internalType": "address"
                        },
                        {
                            "name": "asset_address",
                            "type": "string",
                            "internalType": "string"
                        },
                        {
                            "name": "origin",
                            "type": "uint8",
                            "internalType": "enum WorldInPaper.Origin"
                        },
                        {
                            "name": "isBuy",
                            "type": "bool",
                            "internalType": "bool"
                        },
                        {
                            "name": "amountIn",
                            "type": "uint256",
                            "internalType": "uint256"
                        },
                        {
                            "name": "amountOut",
                            "type": "uint256",
                            "internalType": "uint256"
                        }
                    ]
                }
            ],
            "stateMutability": "view"
        },
        {
            "type": "function",
            "name": "getPlayerPortfolio",
            "inputs": [
                {
                    "name": "gameId",
                    "type": "uint256",
                    "internalType": "uint256"
                },
                {
                    "name": "player",
                    "type": "address",
                    "internalType": "address"
                }
            ],
            "outputs": [
                {
                    "name": "portfolio",
                    "type": "tuple",
                    "internalType": "struct WorldInPaper.PlayerPortfolioView",
                    "components": [
                        {
                            "name": "gameId",
                            "type": "uint256",
                            "internalType": "uint256"
                        },
                        {
                            "name": "player",
                            "type": "address",
                            "internalType": "address"
                        },
                        {
                            "name": "wipBalance",
                            "type": "uint256",
                            "internalType": "uint256"
                        },
                        {
                            "name": "claimed",
                            "type": "bool",
                            "internalType": "bool"
                        },
                        {
                            "name": "claimableAmount",
                            "type": "uint256",
                            "internalType": "uint256"
                        },
                        {
                            "name": "tokens",
                            "type": "tuple[]",
                            "internalType": "struct WorldInPaper.PortfolioTokenView[]",
                            "components": [
                                {
                                    "name": "asset_address",
                                    "type": "string",
                                    "internalType": "string"
                                },
                                {
                                    "name": "origin",
                                    "type": "uint8",
                                    "internalType": "enum WorldInPaper.Origin"
                                },
                                {
                                    "name": "balance",
                                    "type": "uint256",
                                    "internalType": "uint256"
                                },
                                {
                                    "name": "trades",
                                    "type": "tuple[]",
                                    "internalType": "struct WorldInPaper.Trade[]",
                                    "components": [
                                        {
                                            "name": "id",
                                            "type": "uint256",
                                            "internalType": "uint256"
                                        },
                                        {
                                            "name": "trader",
                                            "type": "address",
                                            "internalType": "address"
                                        },
                                        {
                                            "name": "asset_address",
                                            "type": "string",
                                            "internalType": "string"
                                        },
                                        {
                                            "name": "origin",
                                            "type": "uint8",
                                            "internalType": "enum WorldInPaper.Origin"
                                        },
                                        {
                                            "name": "isBuy",
                                            "type": "bool",
                                            "internalType": "bool"
                                        },
                                        {
                                            "name": "amountIn",
                                            "type": "uint256",
                                            "internalType": "uint256"
                                        },
                                        {
                                            "name": "amountOut",
                                            "type": "uint256",
                                            "internalType": "uint256"
                                        }
                                    ]
                                }
                            ]
                        }
                    ]
                }
            ],
            "stateMutability": "view"
        },
        {
            "type": "function",
            "name": "getTotalSettlementRequestsCreated",
            "inputs": [],
            "outputs": [
                {
                    "name": "",
                    "type": "uint256",
                    "internalType": "uint256"
                }
            ],
            "stateMutability": "view"
        },
        {
            "type": "function",
            "name": "getTradeToSettle",
            "inputs": [
                {
                    "name": "tradeId",
                    "type": "uint256",
                    "internalType": "uint256"
                }
            ],
            "outputs": [
                {
                    "name": "",
                    "type": "tuple",
                    "internalType": "struct WorldInPaper.TradeToSettle",
                    "components": [
                        {
                            "name": "id",
                            "type": "uint256",
                            "internalType": "uint256"
                        },
                        {
                            "name": "gameId",
                            "type": "uint256",
                            "internalType": "uint256"
                        },
                        {
                            "name": "trader",
                            "type": "address",
                            "internalType": "address"
                        },
                        {
                            "name": "asset_address",
                            "type": "string",
                            "internalType": "string"
                        },
                        {
                            "name": "origin",
                            "type": "uint8",
                            "internalType": "enum WorldInPaper.Origin"
                        },
                        {
                            "name": "amountIn",
                            "type": "uint256",
                            "internalType": "uint256"
                        },
                        {
                            "name": "isBuy",
                            "type": "bool",
                            "internalType": "bool"
                        }
                    ]
                }
            ],
            "stateMutability": "view"
        },
        {
            "type": "function",
            "name": "hasJoined",
            "inputs": [
                {
                    "name": "gameId",
                    "type": "uint256",
                    "internalType": "uint256"
                },
                {
                    "name": "player",
                    "type": "address",
                    "internalType": "address"
                }
            ],
            "outputs": [
                {
                    "name": "",
                    "type": "bool",
                    "internalType": "bool"
                }
            ],
            "stateMutability": "view"
        },
        {
            "type": "function",
            "name": "joinGame",
            "inputs": [
                {
                    "name": "gameId",
                    "type": "uint256",
                    "internalType": "uint256"
                }
            ],
            "outputs": [],
            "stateMutability": "nonpayable"
        },
        {
            "type": "function",
            "name": "nextGameId",
            "inputs": [],
            "outputs": [
                {
                    "name": "",
                    "type": "uint256",
                    "internalType": "uint256"
                }
            ],
            "stateMutability": "view"
        },
        {
            "type": "function",
            "name": "nextTradeToSettleId",
            "inputs": [],
            "outputs": [
                {
                    "name": "",
                    "type": "uint256",
                    "internalType": "uint256"
                }
            ],
            "stateMutability": "view"
        },
        {
            "type": "function",
            "name": "nullifierUsed",
            "inputs": [
                {
                    "name": "",
                    "type": "uint256",
                    "internalType": "uint256"
                }
            ],
            "outputs": [
                {
                    "name": "",
                    "type": "bool",
                    "internalType": "bool"
                }
            ],
            "stateMutability": "view"
        },
        {
            "type": "function",
            "name": "onReport",
            "inputs": [
                {
                    "name": "metadata",
                    "type": "bytes",
                    "internalType": "bytes"
                },
                {
                    "name": "report",
                    "type": "bytes",
                    "internalType": "bytes"
                }
            ],
            "outputs": [],
            "stateMutability": "nonpayable"
        },
        {
            "type": "function",
            "name": "owner",
            "inputs": [],
            "outputs": [
                {
                    "name": "",
                    "type": "address",
                    "internalType": "address"
                }
            ],
            "stateMutability": "view"
        },
        {
            "type": "function",
            "name": "renounceOwnership",
            "inputs": [],
            "outputs": [],
            "stateMutability": "nonpayable"
        },
        {
            "type": "function",
            "name": "setExpectedAuthor",
            "inputs": [
                {
                    "name": "_author",
                    "type": "address",
                    "internalType": "address"
                }
            ],
            "outputs": [],
            "stateMutability": "nonpayable"
        },
        {
            "type": "function",
            "name": "setExpectedWorkflowId",
            "inputs": [
                {
                    "name": "_id",
                    "type": "bytes32",
                    "internalType": "bytes32"
                }
            ],
            "outputs": [],
            "stateMutability": "nonpayable"
        },
        {
            "type": "function",
            "name": "setExpectedWorkflowName",
            "inputs": [
                {
                    "name": "_name",
                    "type": "string",
                    "internalType": "string"
                }
            ],
            "outputs": [],
            "stateMutability": "nonpayable"
        },
        {
            "type": "function",
            "name": "setForwarderAddress",
            "inputs": [
                {
                    "name": "_forwarder",
                    "type": "address",
                    "internalType": "address"
                }
            ],
            "outputs": [],
            "stateMutability": "nonpayable"
        },
        {
            "type": "function",
            "name": "submitTrade",
            "inputs": [
                {
                    "name": "gameId",
                    "type": "uint256",
                    "internalType": "uint256"
                },
                {
                    "name": "asset_address",
                    "type": "string",
                    "internalType": "string"
                },
                {
                    "name": "origin",
                    "type": "uint8",
                    "internalType": "enum WorldInPaper.Origin"
                },
                {
                    "name": "isBuy",
                    "type": "bool",
                    "internalType": "bool"
                },
                {
                    "name": "amountIn",
                    "type": "uint256",
                    "internalType": "uint256"
                },
                {
                    "name": "worldId",
                    "type": "tuple",
                    "internalType": "struct WorldInPaper.WorldIdVerification",
                    "components": [
                        {
                            "name": "nullifier",
                            "type": "uint256",
                            "internalType": "uint256"
                        },
                        {
                            "name": "action",
                            "type": "uint256",
                            "internalType": "uint256"
                        },
                        {
                            "name": "rpId",
                            "type": "uint64",
                            "internalType": "uint64"
                        },
                        {
                            "name": "nonce",
                            "type": "uint256",
                            "internalType": "uint256"
                        },
                        {
                            "name": "signalHash",
                            "type": "uint256",
                            "internalType": "uint256"
                        },
                        {
                            "name": "expiresAtMin",
                            "type": "uint64",
                            "internalType": "uint64"
                        },
                        {
                            "name": "issuerSchemaId",
                            "type": "uint64",
                            "internalType": "uint64"
                        },
                        {
                            "name": "credentialGenesisIssuedAtMin",
                            "type": "uint256",
                            "internalType": "uint256"
                        },
                        {
                            "name": "zeroKnowledgeProof",
                            "type": "uint256[5]",
                            "internalType": "uint256[5]"
                        }
                    ]
                }
            ],
            "outputs": [
                {
                    "name": "tradeId",
                    "type": "uint256",
                    "internalType": "uint256"
                }
            ],
            "stateMutability": "nonpayable"
        },
        {
            "type": "function",
            "name": "supportsInterface",
            "inputs": [
                {
                    "name": "interfaceId",
                    "type": "bytes4",
                    "internalType": "bytes4"
                }
            ],
            "outputs": [
                {
                    "name": "",
                    "type": "bool",
                    "internalType": "bool"
                }
            ],
            "stateMutability": "pure"
        },
        {
            "type": "function",
            "name": "transferOwnership",
            "inputs": [
                {
                    "name": "newOwner",
                    "type": "address",
                    "internalType": "address"
                }
            ],
            "outputs": [],
            "stateMutability": "nonpayable"
        },
        {
            "type": "function",
            "name": "verifier",
            "inputs": [],
            "outputs": [
                {
                    "name": "",
                    "type": "address",
                    "internalType": "contract IWorldIDVerifier"
                }
            ],
            "stateMutability": "view"
        },
        {
            "type": "function",
            "name": "worldIdVerificationEnabled",
            "inputs": [],
            "outputs": [
                {
                    "name": "",
                    "type": "bool",
                    "internalType": "bool"
                }
            ],
            "stateMutability": "view"
        },
        {
            "type": "event",
            "name": "ExpectedAuthorUpdated",
            "inputs": [
                {
                    "name": "previousAuthor",
                    "type": "address",
                    "indexed": true,
                    "internalType": "address"
                },
                {
                    "name": "newAuthor",
                    "type": "address",
                    "indexed": true,
                    "internalType": "address"
                }
            ],
            "anonymous": false
        },
        {
            "type": "event",
            "name": "ExpectedWorkflowIdUpdated",
            "inputs": [
                {
                    "name": "previousId",
                    "type": "bytes32",
                    "indexed": true,
                    "internalType": "bytes32"
                },
                {
                    "name": "newId",
                    "type": "bytes32",
                    "indexed": true,
                    "internalType": "bytes32"
                }
            ],
            "anonymous": false
        },
        {
            "type": "event",
            "name": "ExpectedWorkflowNameUpdated",
            "inputs": [
                {
                    "name": "previousName",
                    "type": "bytes10",
                    "indexed": true,
                    "internalType": "bytes10"
                },
                {
                    "name": "newName",
                    "type": "bytes10",
                    "indexed": true,
                    "internalType": "bytes10"
                }
            ],
            "anonymous": false
        },
        {
            "type": "event",
            "name": "ForwarderAddressUpdated",
            "inputs": [
                {
                    "name": "previousForwarder",
                    "type": "address",
                    "indexed": true,
                    "internalType": "address"
                },
                {
                    "name": "newForwarder",
                    "type": "address",
                    "indexed": true,
                    "internalType": "address"
                }
            ],
            "anonymous": false
        },
        {
            "type": "event",
            "name": "GameClaimed",
            "inputs": [
                {
                    "name": "gameId",
                    "type": "uint256",
                    "indexed": true,
                    "internalType": "uint256"
                },
                {
                    "name": "player",
                    "type": "address",
                    "indexed": true,
                    "internalType": "address"
                },
                {
                    "name": "payout",
                    "type": "uint256",
                    "indexed": false,
                    "internalType": "uint256"
                },
                {
                    "name": "rank",
                    "type": "uint256",
                    "indexed": false,
                    "internalType": "uint256"
                }
            ],
            "anonymous": false
        },
        {
            "type": "event",
            "name": "GameCreated",
            "inputs": [
                {
                    "name": "gameId",
                    "type": "uint256",
                    "indexed": true,
                    "internalType": "uint256"
                },
                {
                    "name": "creator",
                    "type": "address",
                    "indexed": true,
                    "internalType": "address"
                },
                {
                    "name": "entryAmount",
                    "type": "uint256",
                    "indexed": false,
                    "internalType": "uint256"
                },
                {
                    "name": "maxPlayers",
                    "type": "uint16",
                    "indexed": false,
                    "internalType": "uint16"
                },
                {
                    "name": "startTime",
                    "type": "uint256",
                    "indexed": false,
                    "internalType": "uint256"
                },
                {
                    "name": "endTime",
                    "type": "uint256",
                    "indexed": false,
                    "internalType": "uint256"
                }
            ],
            "anonymous": false
        },
        {
            "type": "event",
            "name": "GameJoined",
            "inputs": [
                {
                    "name": "gameId",
                    "type": "uint256",
                    "indexed": true,
                    "internalType": "uint256"
                },
                {
                    "name": "player",
                    "type": "address",
                    "indexed": true,
                    "internalType": "address"
                },
                {
                    "name": "playerCount",
                    "type": "uint16",
                    "indexed": false,
                    "internalType": "uint16"
                }
            ],
            "anonymous": false
        },
        {
            "type": "event",
            "name": "OwnershipTransferred",
            "inputs": [
                {
                    "name": "previousOwner",
                    "type": "address",
                    "indexed": true,
                    "internalType": "address"
                },
                {
                    "name": "newOwner",
                    "type": "address",
                    "indexed": true,
                    "internalType": "address"
                }
            ],
            "anonymous": false
        },
        {
            "type": "event",
            "name": "SecurityWarning",
            "inputs": [
                {
                    "name": "message",
                    "type": "string",
                    "indexed": false,
                    "internalType": "string"
                }
            ],
            "anonymous": false
        },
        {
            "type": "event",
            "name": "SettlementRequest",
            "inputs": [
                {
                    "name": "tradeId",
                    "type": "uint256",
                    "indexed": true,
                    "internalType": "uint256"
                },
                {
                    "name": "gameId",
                    "type": "uint256",
                    "indexed": true,
                    "internalType": "uint256"
                },
                {
                    "name": "asset_address",
                    "type": "string",
                    "indexed": false,
                    "internalType": "string"
                },
                {
                    "name": "origin",
                    "type": "uint8",
                    "indexed": false,
                    "internalType": "enum WorldInPaper.Origin"
                },
                {
                    "name": "isBuy",
                    "type": "bool",
                    "indexed": false,
                    "internalType": "bool"
                },
                {
                    "name": "amount",
                    "type": "uint256",
                    "indexed": false,
                    "internalType": "uint256"
                }
            ],
            "anonymous": false
        },
        {
            "type": "event",
            "name": "TradeRecorded",
            "inputs": [
                {
                    "name": "gameId",
                    "type": "uint256",
                    "indexed": true,
                    "internalType": "uint256"
                },
                {
                    "name": "tradeId",
                    "type": "uint256",
                    "indexed": true,
                    "internalType": "uint256"
                },
                {
                    "name": "trader",
                    "type": "address",
                    "indexed": true,
                    "internalType": "address"
                },
                {
                    "name": "asset_address",
                    "type": "string",
                    "indexed": false,
                    "internalType": "string"
                },
                {
                    "name": "origin",
                    "type": "uint8",
                    "indexed": false,
                    "internalType": "enum WorldInPaper.Origin"
                },
                {
                    "name": "isBuy",
                    "type": "bool",
                    "indexed": false,
                    "internalType": "bool"
                },
                {
                    "name": "amountIn",
                    "type": "uint256",
                    "indexed": false,
                    "internalType": "uint256"
                },
                {
                    "name": "amountOut",
                    "type": "uint256",
                    "indexed": false,
                    "internalType": "uint256"
                }
            ],
            "anonymous": false
        },
        {
            "type": "event",
            "name": "TradeSettled",
            "inputs": [
                {
                    "name": "tradeId",
                    "type": "uint256",
                    "indexed": true,
                    "internalType": "uint256"
                },
                {
                    "name": "trader",
                    "type": "address",
                    "indexed": true,
                    "internalType": "address"
                },
                {
                    "name": "asset_address",
                    "type": "string",
                    "indexed": false,
                    "internalType": "string"
                },
                {
                    "name": "origin",
                    "type": "uint8",
                    "indexed": false,
                    "internalType": "enum WorldInPaper.Origin"
                },
                {
                    "name": "amountIn",
                    "type": "uint256",
                    "indexed": false,
                    "internalType": "uint256"
                },
                {
                    "name": "isBuy",
                    "type": "bool",
                    "indexed": false,
                    "internalType": "bool"
                },
                {
                    "name": "executionPrice",
                    "type": "uint256",
                    "indexed": false,
                    "internalType": "uint256"
                }
            ],
            "anonymous": false
        },
        {
            "type": "error",
            "name": "AlreadyClaimed",
            "inputs": [
                {
                    "name": "gameId",
                    "type": "uint256",
                    "internalType": "uint256"
                },
                {
                    "name": "player",
                    "type": "address",
                    "internalType": "address"
                }
            ]
        },
        {
            "type": "error",
            "name": "AlreadyJoined",
            "inputs": [
                {
                    "name": "gameId",
                    "type": "uint256",
                    "internalType": "uint256"
                },
                {
                    "name": "player",
                    "type": "address",
                    "internalType": "address"
                }
            ]
        },
        {
            "type": "error",
            "name": "EmptyAssetAddress",
            "inputs": []
        },
        {
            "type": "error",
            "name": "GameAlreadyStarted",
            "inputs": [
                {
                    "name": "gameId",
                    "type": "uint256",
                    "internalType": "uint256"
                },
                {
                    "name": "startTime",
                    "type": "uint256",
                    "internalType": "uint256"
                },
                {
                    "name": "currentTimestamp",
                    "type": "uint256",
                    "internalType": "uint256"
                }
            ]
        },
        {
            "type": "error",
            "name": "GameEnded",
            "inputs": [
                {
                    "name": "gameId",
                    "type": "uint256",
                    "internalType": "uint256"
                },
                {
                    "name": "endTime",
                    "type": "uint256",
                    "internalType": "uint256"
                },
                {
                    "name": "currentTimestamp",
                    "type": "uint256",
                    "internalType": "uint256"
                }
            ]
        },
        {
            "type": "error",
            "name": "GameFull",
            "inputs": [
                {
                    "name": "gameId",
                    "type": "uint256",
                    "internalType": "uint256"
                },
                {
                    "name": "maxPlayers",
                    "type": "uint16",
                    "internalType": "uint16"
                }
            ]
        },
        {
            "type": "error",
            "name": "GameNotEnded",
            "inputs": [
                {
                    "name": "gameId",
                    "type": "uint256",
                    "internalType": "uint256"
                },
                {
                    "name": "endTime",
                    "type": "uint256",
                    "internalType": "uint256"
                },
                {
                    "name": "currentTimestamp",
                    "type": "uint256",
                    "internalType": "uint256"
                }
            ]
        },
        {
            "type": "error",
            "name": "GameNotFound",
            "inputs": [
                {
                    "name": "gameId",
                    "type": "uint256",
                    "internalType": "uint256"
                }
            ]
        },
        {
            "type": "error",
            "name": "GameNotStarted",
            "inputs": [
                {
                    "name": "gameId",
                    "type": "uint256",
                    "internalType": "uint256"
                },
                {
                    "name": "startTime",
                    "type": "uint256",
                    "internalType": "uint256"
                },
                {
                    "name": "currentTimestamp",
                    "type": "uint256",
                    "internalType": "uint256"
                }
            ]
        },
        {
            "type": "error",
            "name": "InsufficientAllowance",
            "inputs": [
                {
                    "name": "player",
                    "type": "address",
                    "internalType": "address"
                },
                {
                    "name": "allowance",
                    "type": "uint256",
                    "internalType": "uint256"
                },
                {
                    "name": "required",
                    "type": "uint256",
                    "internalType": "uint256"
                }
            ]
        },
        {
            "type": "error",
            "name": "InsufficientTokenBalance",
            "inputs": [
                {
                    "name": "gameId",
                    "type": "uint256",
                    "internalType": "uint256"
                },
                {
                    "name": "player",
                    "type": "address",
                    "internalType": "address"
                },
                {
                    "name": "balance",
                    "type": "uint256",
                    "internalType": "uint256"
                },
                {
                    "name": "required",
                    "type": "uint256",
                    "internalType": "uint256"
                }
            ]
        },
        {
            "type": "error",
            "name": "InsufficientWIPBalance",
            "inputs": [
                {
                    "name": "gameId",
                    "type": "uint256",
                    "internalType": "uint256"
                },
                {
                    "name": "player",
                    "type": "address",
                    "internalType": "address"
                },
                {
                    "name": "balance",
                    "type": "uint256",
                    "internalType": "uint256"
                },
                {
                    "name": "required",
                    "type": "uint256",
                    "internalType": "uint256"
                }
            ]
        },
        {
            "type": "error",
            "name": "InvalidAmountIn",
            "inputs": []
        },
        {
            "type": "error",
            "name": "InvalidAuthor",
            "inputs": [
                {
                    "name": "received",
                    "type": "address",
                    "internalType": "address"
                },
                {
                    "name": "expected",
                    "type": "address",
                    "internalType": "address"
                }
            ]
        },
        {
            "type": "error",
            "name": "InvalidEntryAmount",
            "inputs": []
        },
        {
            "type": "error",
            "name": "InvalidExecutionPrice",
            "inputs": []
        },
        {
            "type": "error",
            "name": "InvalidForwarderAddress",
            "inputs": []
        },
        {
            "type": "error",
            "name": "InvalidMaxPlayers",
            "inputs": [
                {
                    "name": "provided",
                    "type": "uint16",
                    "internalType": "uint16"
                },
                {
                    "name": "minAllowed",
                    "type": "uint16",
                    "internalType": "uint16"
                },
                {
                    "name": "maxAllowed",
                    "type": "uint16",
                    "internalType": "uint16"
                }
            ]
        },
        {
            "type": "error",
            "name": "InvalidNullifier",
            "inputs": []
        },
        {
            "type": "error",
            "name": "InvalidSender",
            "inputs": [
                {
                    "name": "sender",
                    "type": "address",
                    "internalType": "address"
                },
                {
                    "name": "expected",
                    "type": "address",
                    "internalType": "address"
                }
            ]
        },
        {
            "type": "error",
            "name": "InvalidStartingWIPBalance",
            "inputs": [
                {
                    "name": "provided",
                    "type": "uint256",
                    "internalType": "uint256"
                },
                {
                    "name": "minAllowed",
                    "type": "uint256",
                    "internalType": "uint256"
                },
                {
                    "name": "maxAllowed",
                    "type": "uint256",
                    "internalType": "uint256"
                }
            ]
        },
        {
            "type": "error",
            "name": "InvalidTimeRange",
            "inputs": [
                {
                    "name": "startTime",
                    "type": "uint256",
                    "internalType": "uint256"
                },
                {
                    "name": "endTime",
                    "type": "uint256",
                    "internalType": "uint256"
                }
            ]
        },
        {
            "type": "error",
            "name": "InvalidTradeAmounts",
            "inputs": [
                {
                    "name": "amountIn",
                    "type": "uint256",
                    "internalType": "uint256"
                },
                {
                    "name": "amountOut",
                    "type": "uint256",
                    "internalType": "uint256"
                }
            ]
        },
        {
            "type": "error",
            "name": "InvalidUSDCAddress",
            "inputs": []
        },
        {
            "type": "error",
            "name": "InvalidVerifierAddress",
            "inputs": []
        },
        {
            "type": "error",
            "name": "InvalidWorkflowId",
            "inputs": [
                {
                    "name": "received",
                    "type": "bytes32",
                    "internalType": "bytes32"
                },
                {
                    "name": "expected",
                    "type": "bytes32",
                    "internalType": "bytes32"
                }
            ]
        },
        {
            "type": "error",
            "name": "InvalidWorkflowName",
            "inputs": [
                {
                    "name": "received",
                    "type": "bytes10",
                    "internalType": "bytes10"
                },
                {
                    "name": "expected",
                    "type": "bytes10",
                    "internalType": "bytes10"
                }
            ]
        },
        {
            "type": "error",
            "name": "NotGamePlayer",
            "inputs": [
                {
                    "name": "gameId",
                    "type": "uint256",
                    "internalType": "uint256"
                },
                {
                    "name": "player",
                    "type": "address",
                    "internalType": "address"
                }
            ]
        },
        {
            "type": "error",
            "name": "OwnableInvalidOwner",
            "inputs": [
                {
                    "name": "owner",
                    "type": "address",
                    "internalType": "address"
                }
            ]
        },
        {
            "type": "error",
            "name": "OwnableUnauthorizedAccount",
            "inputs": [
                {
                    "name": "account",
                    "type": "address",
                    "internalType": "address"
                }
            ]
        },
        {
            "type": "error",
            "name": "StartTimeMustBeFuture",
            "inputs": [
                {
                    "name": "provided",
                    "type": "uint256",
                    "internalType": "uint256"
                },
                {
                    "name": "currentTimestamp",
                    "type": "uint256",
                    "internalType": "uint256"
                }
            ]
        },
        {
            "type": "error",
            "name": "TradeToSettleNotFound",
            "inputs": [
                {
                    "name": "tradeId",
                    "type": "uint256",
                    "internalType": "uint256"
                }
            ]
        },
        {
            "type": "error",
            "name": "TransferFailed",
            "inputs": [
                {
                    "name": "from",
                    "type": "address",
                    "internalType": "address"
                },
                {
                    "name": "amount",
                    "type": "uint256",
                    "internalType": "uint256"
                }
            ]
        },
        {
            "type": "error",
            "name": "WorkflowNameRequiresAuthorValidation",
            "inputs": []
        }
    ],
    "bytecode": {
        "object": "0x60e0604052346100715761001d6100146101b5565b929190916102b8565b610025610076565b616b9761056d823960805181818161116d01528181612da001528181614ade0152614b77015260a05181818161092e015261453a015260c05181818161160d01526144ea0152616b9790f35b61007c565b60405190565b5f80fd5b601f801991011690565b634e487b7160e01b5f52604160045260245ffd5b906100a890610080565b810190811060018060401b038211176100c057604052565b61008a565b906100d86100d1610076565b928361009e565b565b5f80fd5b60018060a01b031690565b6100f2906100de565b90565b6100fe816100e9565b0361010557565b5f80fd5b90505190610116826100f5565b565b610121906100e9565b90565b61012d81610118565b0361013457565b5f80fd5b9050519061014582610124565b565b151590565b61015581610147565b0361015c57565b5f80fd5b9050519061016d8261014c565b565b6080818303126101b057610185825f8301610109565b926101ad6101968460208501610109565b936101a48160408601610138565b93606001610160565b90565b6100da565b6101d3617104803803806101c8816100c5565b92833981019061016f565b90919293565b5f1b90565b906101ea5f19916101d9565b9181191691161790565b90565b90565b90565b61021161020c610216926101f4565b6101fa565b6101f7565b90565b90565b9061023161022c610238926101fd565b610219565b82546101de565b9055565b90565b61025361024e6102589261023c565b6101fa565b6100de565b90565b6102649061023f565b90565b5f0190565b61028061027b610285926100de565b6101fa565b6100de565b90565b6102919061026c565b90565b61029d90610288565b90565b6102a99061026c565b90565b6102b5906102a0565b90565b6102c1906103c4565b6102cd6001600461021c565b6102d96001600561021c565b806102f46102ee6102e95f61025b565b6100e9565b916100e9565b1461035e578280610334575b6103185761030d906102ac565b60805260a05260c052565b5f63043103a360e21b81528061033060048201610267565b0390fd5b5061033e82610294565b61035861035261034d5f61025b565b6100e9565b916100e9565b14610300565b5f6303ec08db60e41b81528061037660048201610267565b0390fd5b9061038b60018060a01b03916101d9565b9181191691161790565b61039e90610288565b90565b90565b906103b96103b46103c092610395565b6103a1565b825461037a565b9055565b6103cd3361048a565b806103e86103e26103dd5f61025b565b6100e9565b916100e9565b1461044d576103f88160016103a4565b6104015f61025b565b9061043561042f7f039ad854736757070884dd787ef1a7f58db33546639d1f3efddcf4a33fb8997e93610395565b91610395565b9161043e610076565b8061044881610267565b0390a3565b5f62e0775560e61b81528061046460048201610267565b0390fd5b610471906100e9565b9052565b9190610488905f60208501940190610468565b565b806104a561049f61049a5f61025b565b6100e9565b916100e9565b146104b5576104b39061050d565b565b6104d86104c15f61025b565b5f918291631e4fbdf760e01b835260048301610475565b0390fd5b5f1c90565b60018060a01b031690565b6104f86104fd916104dc565b6104e1565b90565b61050a90546104ec565b90565b6105165f610500565b610520825f6103a4565b9061055461054e7f8be0079c531659141344cd1fd0a4f28419497f9722a3daafe3b4186f6b6457e093610395565b91610395565b9161055d610076565b8061056781610267565b0390a356fe60806040526004361015610013575b611858565b61001d5f3561026c565b806301ffc9a71461026757806309f25c6814610262578063106ad2671461025d57806315a40f49146102585780631f30385814610253578063209bfa8d1461024e5780632b7ac3f3146102495780633397cf67146102445780633441856f1461023f57806336968d621461023a57806339236bef14610235578063396d525a146102305780634411b3eb1461022b578063603b6531146102265780636819471914610221578063715018a61461021c57806379f95ee914610217578063805f21321461021257806382028cf31461020d57806385f07bbe1461020857806389a30271146102035780638da5cb5b146101fe5780638f130782146101f9578063a2f77bcc146101f4578063a619d818146101ef578063b135bbb0146101ea578063bc1fc27a146101e5578063c3c44ac2146101e0578063cdbe6601146101db578063d1e7f094146101d6578063d60c884b146101d1578063d777cc6d146101cc578063da601a30146101c7578063eb0df8f0146101c2578063efaa55a0146101bd578063f2fde38b146101b85763f5c793ef0361000e57611823565b6117ce565b61179b565b611766565b6116f7565b6116b5565b611682565b61162f565b6115d6565b6115a3565b61152b565b6114c0565b611453565b6113ea565b6112ef565b6111f2565b6111bd565b611136565b6110ca565b610ff4565b610f21565b610e73565b610e38565b610e03565b610d90565b610d01565b610a9c565b610a67565b610a32565b6109fd565b6109a6565b6108f7565b6106dd565b610628565b61051f565b610496565b6102f8565b60e01c90565b60405190565b5f80fd5b5f80fd5b5f80fd5b63ffffffff60e01b1690565b61029981610284565b036102a057565b5f80fd5b905035906102b182610290565b565b906020828203126102cc576102c9915f016102a4565b90565b61027c565b151590565b6102df906102d1565b9052565b91906102f6905f602085019401906102d6565b565b346103285761032461031361030e3660046102b3565b611860565b61031b610272565b918291826102e3565b0390f35b610278565b90565b6103398161032d565b0361034057565b5f80fd5b9050359061035182610330565b565b5f80fd5b5f80fd5b5f80fd5b909182601f830112156103995781359167ffffffffffffffff831161039457602001926001830284011161038f57565b61035b565b610357565b610353565b600611156103a857565b5f80fd5b905035906103b98261039e565b565b6103c4816102d1565b036103cb57565b5f80fd5b905035906103dc826103bb565b565b5f80fd5b90816101a09103126103f15790565b6103de565b906102408282031261046f5761040e815f8401610344565b92602083013567ffffffffffffffff811161046a578261042f91850161035f565b92909361043f82604083016103ac565b9261046761045084606085016103cf565b9361045e8160808601610344565b9360a0016103e2565b90565b610280565b61027c565b61047d9061032d565b9052565b9190610494905f60208501940190610474565b565b346104cd576104c96104b86104ac3660046103f6565b959490949391936120cd565b6104c0610272565b91829182610481565b0390f35b610278565b5f9103126104dc57565b61027c565b90565b90565b6104fb6104f6610500926104e1565b6104e4565b61032d565b90565b61051164e8d4a510006104e7565b90565b61051c610503565b90565b3461054f5761052f3660046104d2565b61054b61053a610514565b610542610272565b91829182610481565b0390f35b610278565b9060208282031261056d5761056a915f01610344565b90565b61027c565b5190565b60209181520190565b60200190565b60018060a01b031690565b61059990610585565b90565b6105a590610590565b9052565b906105b68160209361059c565b0190565b60200190565b906105dd6105d76105d084610572565b8093610576565b9261057f565b905f5b8181106105ed5750505090565b90919261060661060060019286516105a9565b946105ba565b91019190916105e0565b6106259160208201915f8184039101526105c0565b90565b346106585761065461064361063e366004610554565b6125a9565b61064b610272565b91829182610610565b0390f35b610278565b61ffff1690565b61066d8161065d565b0361067457565b5f80fd5b9050359061068582610664565b565b919060a0838203126106d85761069f815f8501610344565b926106ad8260208301610344565b926106d56106be8460408501610678565b936106cc8160608601610344565b93608001610344565b90565b61027c565b346107115761070d6106fc6106f3366004610687565b93929092612727565b610704610272565b91829182610481565b0390f35b610278565b5190565b60209181520190565b60200190565b6107329061032d565b9052565b5190565b60209181520190565b90825f9392825e0152565b601f801991011690565b6107776107806020936107859361076e81610736565b9384809361073a565b95869101610743565b61074e565b0190565b634e487b7160e01b5f52602160045260245ffd5b600611156107a757565b610789565b906107b68261079d565b565b6107c1906107ac565b90565b6107cd906107b8565b9052565b6107da906102d1565b9052565b906108629060c08061082160e084016107fd5f8801515f870190610729565b61080f6020880151602087019061059c565b60408701518582036040870152610758565b94610834606082015160608601906107c4565b610846608082015160808601906107d1565b61085860a082015160a0860190610729565b0151910190610729565b90565b9061086f916107de565b90565b60200190565b9061088c61088583610716565b809261071a565b908161089d60208302840194610723565b925f915b8383106108b057505050505090565b909192939460206108d26108cc83856001950387528951610865565b97610872565b93019301919392906108a1565b6108f49160208201915f818403910152610878565b90565b346109275761092361091261090d366004610554565b612ad1565b61091a610272565b918291826108df565b0390f35b610278565b7f000000000000000000000000000000000000000000000000000000000000000090565b61096461095f61096992610585565b6104e4565b610585565b90565b61097590610950565b90565b6109819061096c565b90565b61098d90610978565b9052565b91906109a4905f60208501940190610984565b565b346109d6576109b63660046104d2565b6109d26109c161092c565b6109c9610272565b91829182610991565b0390f35b610278565b6109e490610590565b9052565b91906109fb905f602085019401906109db565b565b34610a2d57610a0d3660046104d2565b610a29610a18612b3a565b610a20610272565b918291826109e8565b0390f35b610278565b34610a6257610a423660046104d2565b610a5e610a4d612b50565b610a55610272565b918291826109e8565b0390f35b610278565b34610a9757610a773660046104d2565b610a93610a82612b9f565b610a8a610272565b91829182610481565b0390f35b610278565b34610acc57610ac8610ab7610ab2366004610554565b612c61565b610abf610272565b91829182610481565b0390f35b610278565b610ada81610590565b03610ae157565b5f80fd5b90503590610af282610ad1565b565b9190604083820312610b1c5780610b10610b19925f8601610344565b93602001610ae5565b90565b61027c565b5190565b60209181520190565b60200190565b60209181520190565b90610b51610b4a83610716565b8092610b34565b9081610b6260208302840194610723565b925f915b838310610b7557505050505090565b90919293946020610b97610b9183856001950387528951610865565b97610872565b9301930191939290610b66565b610bf6916060610bc1608083015f8501518482035f860152610758565b92610bd4602082015160208501906107c4565b610be660408201516040850190610729565b0151906060818403910152610b3d565b90565b90610c0391610ba4565b90565b60200190565b90610c20610c1983610b21565b8092610b25565b9081610c3160208302840194610b2e565b925f915b838310610c4457505050505090565b90919293946020610c66610c6083856001950387528951610bf9565b97610c06565b9301930191939290610c35565b610ce69160a060c0820192610c8e5f8201515f850190610729565b610ca06020820151602085019061059c565b610cb260408201516040850190610729565b610cc4606082015160608501906107d1565b610cd660808201516080850190610729565b01519060a0818403910152610c0c565b90565b610cfe9160208201915f818403910152610c73565b90565b34610d3257610d2e610d1d610d17366004610af4565b90612f78565b610d25610272565b91829182610ce9565b0390f35b610278565b90565b610d4e610d49610d5392610d37565b6104e4565b61065d565b90565b610d606064610d3a565b90565b610d6b610d56565b90565b610d779061065d565b9052565b9190610d8e905f60208501940190610d6e565b565b34610dc057610da03660046104d2565b610dbc610dab610d63565b610db3610272565b91829182610d7b565b0390f35b610278565b90565b610ddc610dd7610de192610dc5565b6104e4565b61032d565b90565b610df5670de0b6b3a7640000610dc8565b90565b610e00610de4565b90565b34610e3357610e133660046104d2565b610e2f610e1e610df8565b610e26610272565b91829182610481565b0390f35b610278565b34610e6957610e65610e54610e4e366004610af4565b90613098565b610e5c610272565b918291826102e3565b0390f35b610278565b5f0190565b34610ea157610e833660046104d2565b610e8b613152565b610e93610272565b80610e9d81610e6e565b0390f35b610278565b610eba610eb5610ebf9261032d565b6104e4565b61032d565b90565b90610ecc90610ea6565b5f5260205260405f2090565b1c90565b60ff1690565b610ef2906008610ef79302610ed8565b610edc565b90565b90610f059154610ee2565b90565b610f1e90610f196006915f92610ec2565b610efa565b90565b34610f5157610f4d610f3c610f37366004610554565b610f08565b610f44610272565b918291826102e3565b0390f35b610278565b909182601f83011215610f905781359167ffffffffffffffff8311610f8b576020019260018302840111610f8657565b61035b565b610357565b610353565b9091604082840312610fef575f82013567ffffffffffffffff8111610fea5783610fc0918401610f56565b929093602082013567ffffffffffffffff8111610fe557610fe19201610f56565b9091565b610280565b610280565b61027c565b3461102657611010611007366004610f95565b929190916132c1565b611018610272565b8061102281610e6e565b0390f35b610278565b906110af9060c08061108060e0840161104a5f8801515f870190610729565b61105c60208801516020870190610729565b61106e6040880151604087019061059c565b60608701518582036060870152610758565b94611093608082015160808601906107c4565b6110a560a082015160a0860190610729565b01519101906107d1565b90565b6110c79160208201915f81840391015261102b565b90565b346110fa576110f66110e56110e0366004610554565b6136f7565b6110ed610272565b918291826110b2565b0390f35b610278565b90565b61111661111161111b926110ff565b6104e4565b61065d565b90565b6111286002611102565b90565b61113361111e565b90565b34611166576111463660046104d2565b61116261115161112b565b611159610272565b91829182610d7b565b0390f35b610278565b7f000000000000000000000000000000000000000000000000000000000000000090565b6111989061096c565b90565b6111a49061118f565b9052565b91906111bb905f6020850194019061119b565b565b346111ed576111cd3660046104d2565b6111e96111d861116b565b6111e0610272565b918291826111a8565b0390f35b610278565b34611222576112023660046104d2565b61121e61120d61375a565b611215610272565b918291826109e8565b0390f35b610278565b5190565b60209181520190565b60200190565b9060408061126e936112525f8201515f86019061059c565b61126460208201516020860190610729565b0151910190610729565b565b9061127d8160609361123a565b0190565b60200190565b906112a461129e61129784611227565b809361122b565b92611234565b905f5b8181106112b45750505090565b9091926112cd6112c76001928651611270565b94611281565b91019190916112a7565b6112ec9160208201915f818403910152611287565b90565b3461131f5761131b61130a611305366004610554565b6138d1565b611312610272565b918291826112d7565b0390f35b610278565b61132d9061065d565b9052565b90610100806113d29361134a5f8201515f860190610729565b61135c60208201516020860190610729565b61136e60408201516040860190610729565b61138060608201516060860190610729565b61139260808201516080860190610729565b6113a460a082015160a0860190611324565b6113b660c082015160c0860190611324565b6113c860e082015160e086019061059c565b01519101906107d1565b565b91906113e8905f6101208501940190611331565b565b3461141a57611416611405611400366004610554565b613b29565b61140d610272565b918291826113d4565b0390f35b610278565b69ffffffffffffffffffff60b01b1690565b61143a9061141f565b9052565b9190611451905f60208501940190611431565b565b34611483576114633660046104d2565b61147f61146e613c87565b611476610272565b9182918261143e565b0390f35b610278565b90565b61149b9060086114a09302610ed8565b611488565b90565b906114ae915461148b565b90565b6114bd60045f906114a3565b90565b346114f0576114d03660046104d2565b6114ec6114db6114b1565b6114e3610272565b91829182610481565b0390f35b610278565b90602082820312611526575f82013567ffffffffffffffff81116115215761151d920161035f565b9091565b610280565b61027c565b3461155a5761154461153e3660046114f5565b9061404a565b61154c610272565b8061155681610e6e565b0390f35b610278565b90565b61156b8161155f565b0361157257565b5f80fd5b9050359061158382611562565b565b9060208282031261159e5761159b915f01611576565b90565b61027c565b346115d1576115bb6115b6366004611585565b614102565b6115c3610272565b806115cd81610e6e565b0390f35b610278565b34611606576116026115f16115ec366004610554565b61410d565b6115f9610272565b91829182610481565b0390f35b610278565b7f000000000000000000000000000000000000000000000000000000000000000090565b3461165f5761163f3660046104d2565b61165b61164a61160b565b611652610272565b918291826102e3565b0390f35b610278565b9060208282031261167d5761167a915f01610ae5565b90565b61027c565b346116b05761169a611695366004611664565b6141e6565b6116a2610272565b806116ac81610e6e565b0390f35b610278565b346116e3576116cd6116c8366004611664565b614340565b6116d5610272565b806116df81610e6e565b0390f35b610278565b6116f460055f906114a3565b90565b34611727576117073660046104d2565b6117236117126116e8565b61171a610272565b91829182610481565b0390f35b610278565b90565b61174361173e6117489261172c565b6104e4565b61032d565b90565b6117586305f5e10061172f565b90565b61176361174b565b90565b34611796576117763660046104d2565b61179261178161175b565b611789610272565b91829182610481565b0390f35b610278565b346117c9576117b36117ae366004610554565b61434b565b6117bb610272565b806117c581610e6e565b0390f35b610278565b346117fc576117e66117e1366004611664565b6143c4565b6117ee610272565b806117f881610e6e565b0390f35b610278565b61180a9061155f565b9052565b9190611821905f60208501940190611801565b565b34611853576118333660046104d2565b61184f61183e6143d3565b611846610272565b9182918261180e565b0390f35b610278565b5f80fd5b5f90565b61186861185c565b508061188361187d63402f909960e11b610284565b91610284565b14908115611890575b5090565b90506118ab6118a56301ffc9a760e01b610284565b91610284565b145f61188c565b5f90565b906118c090610ea6565b5f5260205260405f2090565b90565b60c01c90565b6118e16118e6916118cf565b610edc565b90565b6118f390546118d5565b90565b6118ff9061096c565b90565b9061190c906118f6565b5f5260205260405f2090565b5f1c90565b61192961192e91611918565b610edc565b90565b61193b905461191d565b90565b91602061195f92949361195860408201965f830190610474565b01906109db565b565b61196d61197291611918565b611488565b90565b61197f9054611961565b90565b6040906119ab6119b294969593966119a160608401985f850190610474565b6020830190610474565b0190610474565b565b91565b5090565b90565b6119d26119cd6119d7926119bb565b6104e4565b61032d565b90565b906119e4906118f6565b5f5260205260405f2090565b905090565b90825f939282370152565b909182611a1081611a17936119f0565b80936119f5565b0190565b90565b611a2a611a2f9161032d565b611a1b565b9052565b611a449060209493611a4b93611a00565b8092611a1e565b0190565b9091611a6690611a5d610272565b93849384611a33565b03902090565b9091611a7792611a4f565b90565b611aaf611ab694611aa5606094989795611a9b608086019a5f870190610474565b60208501906109db565b6040830190610474565b0190610474565b565b90611ac3910361032d565b90565b5f1b90565b90611ad75f1991611ac6565b9181191691161790565b90565b90611af9611af4611b0092610ea6565b611ae1565b8254611acb565b9055565b90611b0e906118f6565b5f5260205260405f2090565b90565b611b31611b2c611b3692611b1a565b6104e4565b61032d565b90565b90611b44910161032d565b90565b634e487b7160e01b5f52604160045260245ffd5b90611b659061074e565b810190811067ffffffffffffffff821117611b7f57604052565b611b47565b90611b97611b90610272565b9283611b5b565b565b611ba360e0611b84565b90565b90611bb09061032d565b9052565b90611bbe90610590565b9052565b5f80fd5b67ffffffffffffffff8111611be457611be060209161074e565b0190565b611b47565b90929192611bfe611bf982611bc6565b611b84565b93818552602085019082840111611c1a57611c18926119f5565b565b611bc2565b611c2a913691611be9565b90565b52565b90611c3a906107ac565b9052565b90611c48906102d1565b9052565b90611c5690610ea6565b5f5260205260405f2090565b634e487b7160e01b5f525f60045260245ffd5b611c7f905161032d565b90565b611c8c9051610590565b90565b90611ca060018060a01b0391611ac6565b9181191691161790565b90565b90611cc2611cbd611cc9926118f6565b611caa565b8254611c8f565b9055565b5190565b634e487b7160e01b5f52602260045260245ffd5b9060016002830492168015611d05575b6020831014611d0057565b611cd1565b91607f1691611cf5565b5f5260205f2090565b601f602091010490565b1b90565b91906008611d41910291611d3b5f1984611d22565b92611d22565b9181191691161790565b9190611d61611d5c611d6993610ea6565b611ae1565b908354611d26565b9055565b611d7f91611d796118b2565b91611d4b565b565b5f5b828110611d8f57505050565b80611d9e5f6001938501611d6d565b01611d83565b9190601f8111611db4575b505050565b818111611dc1575b611daf565b611dd6611dd0611df494611d0f565b91611d18565b916020611de282611d18565b9110611dfc575b809101910390611d81565b5f8080611dbc565b505f611de9565b90611e13905f1990600802610ed8565b191690565b81611e2291611e03565b906002021790565b90611e3481610736565b9067ffffffffffffffff8211611ef457611e5882611e528554611ce5565b85611da4565b602090601f8311600114611e8c57918091611e7b935f92611e80575b5050611e18565b90555b565b90915001515f80611e74565b601f19831691611e9b85611d0f565b925f5b818110611edc57509160029391856001969410611ec2575b50505002019055611e7e565b611ed2910151601f841690611e03565b90555f8080611eb6565b91936020600181928787015181550195019201611e9e565b611b47565b90611f0391611e2a565b565b611f0f90516107ac565b90565b90611f1e60ff91611ac6565b9181191691161790565b611f31906107ac565b90565b90565b90611f4c611f47611f5392611f28565b611f34565b8254611f12565b9055565b611f6190516102d1565b90565b611f6d906102d1565b90565b90565b90611f88611f83611f8f92611f64565b611f70565b8254611f12565b9055565b9061203b60c0600661204194611fb65f8201611fb05f8801611c75565b90611ae4565b611fcf60018201611fc960208801611c75565b90611ae4565b611fe860028201611fe260408801611c82565b90611cad565b61200160038201611ffb60608801611ccd565b90611ef9565b61201a6004820161201460808801611f05565b90611f37565b6120336005820161202d60a08801611c75565b90611ae4565b019201611f57565b90611f73565b565b9061204d91611f93565b565b60209181520190565b91906120728161206b816120779561204f565b80956119f5565b61074e565b0190565b612084906107b8565b9052565b906120cb946120ba6120af6120c4936060969a99979a60808701918783035f890152612058565b98602085019061207b565b60408301906102d6565b0190610474565b565b929093919695966120dc6118b2565b506120f16120ec600786906118b6565b6118cc565b976120fa6143e9565b9861211061210a600583016118e9565b156102d1565b6124ab5761213361212d612128600784018d90611902565b611931565b156102d1565b61248b574261215561214f61214a60038501611975565b61032d565b9161032d565b1061245e574261217861217261216d60048501611975565b61032d565b9161032d565b10156124315761219261218c8885906119b4565b906119b7565b6121a461219e5f6119be565b9161032d565b1461241557876121bc6121b65f6119be565b9161032d565b146123f957845f14612364576121de6121d9600983018c90611b04565b611975565b806121f16121eb8b61032d565b9161032d565b1061233a5790612213600961220a612218948c90611ab8565b92018c90611b04565b611ae4565b5b612222906144e5565b61222c6005611975565b9788600161223990611b1d565b61224291611b39565b61224d906005611ae4565b8890859087849086918b938995612262611b99565b975f89019061227091611ba6565b602088019061227e91611ba6565b604087019061228c91611bb4565b61229591611c1f565b60608501906122a391611c2d565b60808401906122b191611c30565b60a08301906122bf91611ba6565b60c08201906122cd91611c3e565b6008896122d991611c4c565b906122e391612043565b879394909192957f58e0acce266b08e1eecf681087ad8b3f35bf8717d638580589d39d6a55fd786c9461231590610ea6565b9561231f90610ea6565b96612328610272565b9485946123359486612088565b0390a3565b8a6123608a89929361234a610272565b9485946336fb87c960e21b865260048601611a7a565b0390fd5b612385612380612378600a84018d906119da565b898691611a6c565b611975565b806123986123928b61032d565b9161032d565b106123cf57906123c56123bd600a6123b46123ca958d90611ab8565b93018d906119da565b898691611a6c565b611ae4565b612219565b8a6123f58a8992936123df610272565b94859463156e78d360e01b865260048601611a7a565b0390fd5b5f6365719fe160e11b81528061241160048201610e6e565b0390fd5b5f632f5387ed60e01b81528061242d60048201610e6e565b0390fd5b61243e6004879201611975565b9061245a425f9384936360fdf8ff60e01b855260048501611982565b0390fd5b61246b6003879201611975565b90612487425f93849363bfc25e3560e01b855260048501611982565b0390fd5b89866124a75f928392636d9dcc0160e01b84526004840161193e565b0390fd5b6124c6865f91829163d13b267760e01b835260048301610481565b0390fd5b606090565b5490565b60209181520190565b5f5260205f2090565b60018060a01b031690565b6124fc61250191611918565b6124e5565b90565b61250e90546124f0565b90565b60010190565b9061253461252e612527846124cf565b80936124d3565b926124dc565b905f5b8181106125445750505090565b90919261256461255e60019261255987612504565b6105a9565b94612511565b9101919091612537565b9061257891612517565b90565b9061259b6125949261258b610272565b9384809261256e565b0383611b5b565b565b6125a69061257b565b90565b6125b16124ca565b506125d26125cc60056125c6600785906118b6565b016118e9565b156102d1565b6125ef5760066125e66125ec9260076118b6565b0161259d565b90565b61260a905f91829163d13b267760e01b835260048301610481565b0390fd5b9061261b61ffff91611ac6565b9181191691161790565b61263961263461263e9261065d565b6104e4565b61065d565b90565b90565b9061265961265461266092612625565b612641565b825461260e565b9055565b60201b90565b90612680640100000000600160c01b0391612664565b9181191691161790565b9061269f61269a6126a6926118f6565b611caa565b825461266a565b9055565b60c01b90565b906126bf60ff60c01b916126aa565b9181191691161790565b906126de6126d96126e592611f64565b611f70565b82546126b0565b9055565b61271e6127259461271460609498979561270a608086019a5f870190610474565b6020850190610d6e565b6040830190610474565b0190610474565b565b61284e9392959491956127386118b2565b506127416143e9565b93612751838984849188936146ba565b6127f661275e6004611975565b9861277d6127768b6127706001611b1d565b90611b39565b6004611ae4565b6127b761279461278f60078d906118b6565b6118cc565b916127a18c5f8501611ae4565b6127ae8760018501611ae4565b60028301611ae4565b6127c48360038301611ae4565b6127d18660048301611ae4565b6127de8460058301612644565b6127eb876005830161268a565b6005600191016126c9565b8791612845869491929561283361282d7f1fb8c81a77ff21ab1560d4e1c2ef431e767881054bb7a1375ea347ac3eacc38196610ea6565b966118f6565b9661283c610272565b948594856126e9565b0390a383614a3e565b565b606090565b5490565b67ffffffffffffffff81116128715760208091020190565b611b47565b9061288861288383612859565b611b84565b918252565b5f5260205f2090565b6128a090546124f0565b90565b905f92918054906128bd6128b683611ce5565b809461073a565b916001811690815f1461291457506001146128d8575b505050565b6128e59192939450611d0f565b915f925b8184106128fc57505001905f80806128d3565b600181602092959395548486015201910192906128e9565b92949550505060ff19168252151560200201905f80806128d3565b90612939916128a3565b90565b9061295c6129559261294c610272565b9384809261292f565b0383611b5b565b565b60ff1690565b61297061297591611918565b61295e565b90565b6129829054612964565b90565b60081c90565b61299761299c91612985565b610edc565b90565b6129a9905461298b565b90565b6129b660e0611b84565b90565b90612a68612a5f60056129ca6129ac565b946129e16129d95f8301611975565b5f8801611ba6565b6129f96129f060018301612896565b60208801611bb4565b612a11612a086002830161293c565b60408801611c2d565b612a29612a2060038301612978565b60608801611c30565b612a41612a386003830161299f565b60808801611c3e565b612a59612a5060048301611975565b60a08801611ba6565b01611975565b60c08401611ba6565b565b612a73906129b9565b90565b90612a8082612855565b612a8981612876565b92612a97602085019161288d565b5f915b838310612aa75750505050565b60066020600192612ab785612a6a565b815201920192019190612a9a565b612ace90612a76565b90565b612ad9612850565b50612afa612af46005612aee600785906118b6565b016118e9565b156102d1565b612b1757600b612b0e612b149260076118b6565b01612ac5565b90565b612b32905f91829163d13b267760e01b835260048301610481565b0390fd5b5f90565b612b42612b36565b50612b4d6002612896565b90565b612b58612b36565b50612b636001612896565b90565b634e487b7160e01b5f52601160045260245ffd5b612b89612b8f9193929361032d565b9261032d565b8203918211612b9a57565b612b66565b612ba76118b2565b50612bc5612bb56005611975565b612bbf6001611b1d565b90612b7a565b90565b5f80fd5b60e01b90565b90505190612bdf826103bb565b565b90602082820312612bfa57612bf7915f01612bd2565b90565b61027c565b916020612c20929493612c1960408201965f8301906109db565b0190610474565b565b612c2a610272565b3d5f823e3d90fd5b612c3b9061096c565b90565b916020612c5f929493612c5860408201965f830190610474565b0190610474565b565b90612c6a6118b2565b50612c7f612c7a600784906118b6565b6118cc565b91612c886143e9565b90612c9e612c98600586016118e9565b156102d1565b612eda57612cc1612cbb612cb6600787018590611902565b611931565b156102d1565b612ebc5742612ce3612cdd612cd860048801611975565b61032d565b9161032d565b10612e9057612cfe612cf9600886018490611902565b611931565b612e725790612d3391612d0f6118b2565b50612d1b858390614ef3565b939095612d2e6008600192018590611902565b611f73565b84612d46612d405f6119be565b9161032d565b11612d9b575b8492612d81612d7b7fd7c67de7b0b0413d02e6be7217f5d5b29434be6f621fb3c61063fb87d2ac2a6b93610ea6565b936118f6565b93612d96612d8d610272565b92839283612c3e565b0390a3565b612dc47f000000000000000000000000000000000000000000000000000000000000000061118f565b602063a9059cbb918490612deb5f8a95612df6612ddf610272565b97889687958694612bcc565b845260048401612bff565b03925af18015612e6d57612e12915f91612e3f575b50156102d1565b15612d4c5784612e2130612c32565b612e3b5f928392630e21dcbb60e11b845260048401612bff565b0390fd5b612e60915060203d8111612e66575b612e588183611b5b565b810190612be1565b5f612e0b565b503d612e4e565b612c22565b612e8c5f9283926302a4851560e61b84526004840161193e565b0390fd5b612e9c60048501611975565b90612eb8425f9384936349697f9360e01b855260048501611982565b0390fd5b612ed65f928392636d9dcc0160e01b84526004840161193e565b0390fd5b612ef5905f91829163d13b267760e01b835260048301610481565b0390fd5b612f0360c0611b84565b90565b5f90565b5f90565b5f90565b606090565b612f1f612ef9565b906020808080808087612f30612f06565b815201612f3b612f0a565b815201612f46612f06565b815201612f51612f0e565b815201612f5c612f06565b815201612f67612f12565b81525050565b612f75612f17565b90565b9190612f82612f6d565b92612f97612f92600783906118b6565b6118cc565b90612fad612fa7600584016118e9565b156102d1565b61307957612fd0612fca612fc5600785018690611902565b611931565b156102d1565b6130595790612fe561305293925f8701611ba6565b612ff28260208701611bb4565b61301461300b613006600984018590611b04565b611975565b60408701611ba6565b61303661302d613028600884018590611902565b611931565b60608701611c3e565b61304d613044828490614fee565b60808701611ba6565b615569565b60a0830152565b90506130755f928392636d9dcc0160e01b84526004840161193e565b0390fd5b613094905f91829163d13b267760e01b835260048301610481565b0390fd5b6130a061185c565b506130c16130bb60056130b5600785906118b6565b016118e9565b156102d1565b6130e6576130e39160076130d86130de93826118b6565b01611902565b611931565b90565b613101905f91829163d13b267760e01b835260048301610481565b0390fd5b61310d615a4f565b61311561313f565b565b61312b613126613130926119bb565b6104e4565b610585565b90565b61313c90613117565b90565b61315061314b5f613133565b615a9d565b565b61315a613105565b565b91602061317d92949361317660408201965f8301906109db565b01906109db565b565b90565b61318e61319391611918565b61317f565b90565b6131a09054613182565b90565b6131b76131b26131bc926119bb565b611ac6565b61155f565b90565b60a01c90565b60b01b90565b6131d4906131c5565b90565b6131e36131e8916131bf565b6131cb565b90565b6131f590546131d7565b90565b61320c613207613211926119bb565b6131c5565b61141f565b90565b67ffffffffffffffff81116132325761322e60209161074e565b0190565b611b47565b9092919261324c61324782613214565b611b84565b9381855260208501908284011161326857613266926119f5565b565b611bc2565b613278913691613237565b90565b91602061329c92949361329560408201965f830190611801565b0190611801565b565b9160206132bf9294936132b860408201965f830190611431565b0190611431565b565b939291936132cf6001612896565b6132e96132e36132de5f613133565b610590565b91610590565b141580613593575b613569576132ff6003613196565b61331961331361330e5f6131a3565b61155f565b9161155f565b1415801561353d575b8015613511575b61333c575b505061333a9192616064565b565b61334e916133499161326d565b615afc565b949190949061335d6003613196565b61337761337161336c5f6131a3565b61155f565b9161155f565b1415806134ed575b6134c4575061338e6002612896565b6133a86133a261339d5f613133565b610590565b91610590565b1415806134a0575b61347757506133bf60026131eb565b6133d96133d36133ce5f6131f8565b61141f565b9161141f565b036133e6575b928061332e565b6133f06002612896565b61340a6134046133ff5f613133565b610590565b91610590565b1461345b578361342b61342561342060026131eb565b61141f565b9161141f565b03156133df578361343c60026131eb565b906134575f92839263362304d360e11b84526004840161329e565b0390fd5b5f634847901160e01b81528061347360048201610e6e565b0390fd5b6134816002612896565b9061349c5f928392631715315f60e31b84526004840161315c565b0390fd5b50806134bd6134b76134b26002612896565b610590565b91610590565b14156133b0565b6134ce6003613196565b906134e95f928392634dfd1cdd60e11b84526004840161327b565b0390fd5b508061350a6135046134ff6003613196565b61155f565b9161155f565b141561337f565b5061351c60026131eb565b61353661353061352b5f6131f8565b61141f565b9161141f565b1415613329565b506135486002612896565b61356261355c6135575f613133565b610590565b91610590565b1415613322565b336135746001612896565b9061358f5f92839263708986dd60e11b84526004840161315c565b0390fd5b50336135b06135aa6135a56001612896565b610590565b91610590565b14156132f1565b6135c160e0611b84565b90565b606090565b5f90565b6135d56135b7565b906020808080808080886135e7612f06565b8152016135f2612f06565b8152016135fd612f0a565b8152016136086135c4565b8152016136136135c9565b81520161361e612f06565b815201613629612f0e565b81525050565b6136376135cd565b90565b906136e96136e0600661364b6135b7565b9461366261365a5f8301611975565b5f8801611ba6565b61367a61367160018301611975565b60208801611ba6565b61369261368960028301612896565b60408801611bb4565b6136aa6136a16003830161293c565b60608801611c2d565b6136c26136b960048301612978565b60808801611c30565b6136da6136d160058301611975565b60a08801611ba6565b01611931565b60c08401611c3e565b565b6136f49061363a565b90565b6136ff61362f565b5061371461370f60088390611c4c565b6136eb565b906137205f8301611c75565b61373261372c5f6119be565b9161032d565b1461373b575090565b613756905f918291631c47a16f60e11b835260048301610481565b0390fd5b613762612b36565b5061376c5f612896565b90565b606090565b67ffffffffffffffff811161378c5760208091020190565b611b47565b906137a361379e83613774565b611b84565b918252565b6137b26060611b84565b90565b6137bd6137a8565b9060208080846137cb612f0a565b8152016137d6612f06565b8152016137e1612f06565b81525050565b6137ef6137b5565b90565b5f5b82811061380057505050565b60209061380b6137e7565b81840152016137f4565b9061383a61382283613791565b926020806138308693613774565b92019103906137f2565b565b634e487b7160e01b5f52603260045260245ffd5b9061385a82610572565b81101561386b576020809102010190565b61383c565b61387f6138859193929361032d565b9261032d565b820180921161389057565b612b66565b61389f6060611b84565b90565b906138ac82611227565b8110156138bd576020809102010190565b61383c565b60016138ce910161032d565b90565b6138d961376f565b506138ee6138e9600783906118b6565b6118cc565b906139046138fe600584016118e9565b156102d1565b6139e1575061391281616564565b9061391c82610572565b9161392683613815565b936139305f6119be565b5b8061394461393e8761032d565b9161032d565b10156139da576139d5906139ce61396461395f868490613850565b611c82565b6139bb816139b261399461398f6139858861397f6001611b1d565b90613870565b9360098d01611b04565b611975565b916139a96139a0613895565b955f8701611bb4565b60208501611ba6565b60408301611ba6565b8883916139c883836138a2565b526138a2565b51506138c2565b613931565b5092505050565b6139fc905f91829163d13b267760e01b835260048301610481565b0390fd5b613a0b610120611b84565b90565b5f90565b613a1a613a00565b90602080808080808080808a613a2e612f06565b815201613a39612f06565b815201613a44612f06565b815201613a4f612f06565b815201613a5a612f06565b815201613a65613a0e565b815201613a70613a0e565b815201613a7b612f0a565b815201613a86612f0e565b81525050565b613a94613a12565b90565b61ffff1690565b613aaa613aaf91611918565b613a97565b90565b613abc9054613a9e565b90565b60101c90565b613ad1613ad691613abf565b613a97565b90565b613ae39054613ac5565b90565b60201c90565b613af8613afd91613ae6565b6124e5565b90565b613b0a9054613aec565b90565b613b18610120611b84565b90565b90613b259061065d565b9052565b613b31613a8c565b50613b46613b41600783906118b6565b6118cc565b90613b5c613b56600584016118e9565b156102d1565b613c645750805f01613b6d90611975565b9080600101613b7b90611975565b9080600201613b8990611975565b81600301613b9690611975565b82600401613ba390611975565b83600501613bb090613ab2565b9184600501613bbe90613ad9565b9385600501613bcc90613b00565b95600501613bd9906118e9565b96613be2613b0d565b985f8a0190613bf091611ba6565b6020890190613bfe91611ba6565b6040880190613c0c91611ba6565b6060870190613c1a91611ba6565b6080860190613c2891611ba6565b60a0850190613c3691613b1b565b60c0840190613c4491613b1b565b60e0830190613c5291611bb4565b610100820190613c6191611c3e565b90565b613c7f905f91829163d13b267760e01b835260048301610481565b0390fd5b5f90565b613c8f613c83565b50613c9a60026131eb565b90565b90613caf91613caa615a4f565b613e6a565b565b60a01b90565b90613ccf69ffffffffffffffffffff60a01b91613cb1565b9181191691161790565b613ce29061141f565b90565b60b01c90565b613cf490613ce5565b90565b90613d0c613d07613d1392613cd9565b613ceb565b8254613cb7565b9055565b905090565b909182613d2c81613d3393613d17565b80936119f5565b0190565b9091613d4292613d1c565b90565b90565b613d54613d599161155f565b613d45565b9052565b613d6981602093613d48565b0190565b90565b613d84613d7f613d8992613d6d565b6104e4565b61032d565b90565b90613d9e613d9983613214565b611b84565b918252565b369037565b90613dcd613db583613d8c565b92602080613dc38693613214565b9201910390613da3565b565b5190565b90613ddd82613dcf565b811015613def57600160209102010190565b61383c565b60ff60f81b1690565b613e079051613df4565b90565b60200190565b613e1a905161141f565b90565b613e37613e32613e2c83613dcf565b92613e0a565b613e10565b90600a8110613e45575b5090565b613e639069ffffffffffffffffffff60b01b90600a03600802611d22565b165f613e41565b613e7460026131eb565b91613e89613e838383906119b4565b906119b7565b613e9b613e955f6119be565b9161032d565b14613fe157613ead5f916020936119b4565b90613ec2613eb9610272565b92839283613d37565b039060025afa15613fdc57613f08613ef4613f03613ee05f51611ac6565b613ee8610272565b92839160208301613d5d565b60208201810382520382611b5b565b61683e565b91613f1b613f16600a613d70565b613da8565b90613f255f6119be565b5b80613f3a613f34600a613d70565b9161032d565b1015613f7157613f6c90613f57613f52878390613dd3565b613dfd565b613f66859183905f1a92613dd3565b536138c2565b613f26565b509250613f80613f8791613e1d565b6002613cf7565b613f9160026131eb565b613fc4613fbe7f1e7ddd09d504c82dcfc784a464b167469f5aad967606ec4822d848ef9141dfa593613cd9565b91613cd9565b91613fcd610272565b80613fd781610e6e565b0390a3565b612c22565b5050613ff6613fef5f6131f8565b6002613cf7565b613fff5f6131f8565b61403261402c7f1e7ddd09d504c82dcfc784a464b167469f5aad967606ec4822d848ef9141dfa593613cd9565b91613cd9565b9161403b610272565b8061404581610e6e565b0390a3565b9061405491613c9d565b565b61406790614062615a4f565b6140a1565b565b6140729061155f565b90565b61407e90611918565b90565b9061409661409161409d92614069565b614075565b8254611acb565b9055565b6140ab6003613196565b6140b6826003614081565b906140ea6140e47f0dbedcdf21925e053b4c574eae180d7f2883235ab4976ecc0873598a2a999b0393614069565b91614069565b916140f3610272565b806140fd81610e6e565b0390a3565b61410b90614056565b565b6141156118b2565b50614136614130600561412a600785906118b6565b016118e9565b156102d1565b61415357600b61414a6141509260076118b6565b01612855565b90565b61416e905f91829163d13b267760e01b835260048301610481565b0390fd5b6141839061417e615a4f565b614185565b565b61418f6002612896565b61419a826002611cad565b906141ce6141c87f3321cda85c145617e47418aa14255e9dcbec53a753778e57591703b89a3cad31936118f6565b916118f6565b916141d7610272565b806141e181610e6e565b0390a3565b6141ef90614172565b565b614202906141fd615a4f565b614283565b565b60207f636f6e7472616374206973206e6f7720494e5345435552450000000000000000917f466f7277617264657220616464726573732073657420746f207a65726f202d205f8201520152565b61425e603860409261204f565b61426781614204565b0190565b6142809060208101905f818303910152614251565b90565b61428d6001612896565b816142a86142a261429d5f613133565b610590565b91610590565b14614305575b6142b9826001611cad565b906142ed6142e77f039ad854736757070884dd787ef1a7f58db33546639d1f3efddcf4a33fb8997e936118f6565b916118f6565b916142f6610272565b8061430081610e6e565b0390a3565b7f704da7db165c79c1e33d542c079333bbde970a733032d2f95fec8fb7d770cbf761432e610272565b806143388161426b565b0390a16142ae565b614349906141f1565b565b61435d906143576143e9565b90614a3e565b565b6143709061436b615a4f565b614372565b565b8061438d6143876143825f613133565b610590565b91610590565b1461439d5761439b90615a9d565b565b6143c06143a95f613133565b5f918291631e4fbdf760e01b8352600483016109e8565b0390fd5b6143cd9061435f565b565b5f90565b6143db6143cf565b506143e66003613196565b90565b6143f1612b36565b503390565b3561440081610330565b90565b67ffffffffffffffff1690565b61441981614403565b0361442057565b5f80fd5b3561442e81614410565b90565b5f91031261443b57565b61027c565b61444990614403565b9052565b9037565b61445d9160a09161444d565b565b969492909998979593916101a088019a5f890161447b91610474565b6020880161448891610474565b6040870161449591614440565b606086016144a291610474565b608085016144af91610474565b60a084016144bc91614440565b60c083016144c991614440565b60e082016144d691610474565b610100016144e391614451565b565b61450f7f0000000000000000000000000000000000000000000000000000000000000000156102d1565b6146855761453161452c60066145265f85016143f6565b90610ec2565b611931565b6146695761455e7f0000000000000000000000000000000000000000000000000000000000000000610978565b9063fd184bea61456f5f83016143f6565b61457b602084016143f6565b9361458860408501614424565b92614595606086016143f6565b906145a2608087016143f6565b946145af60a08801614424565b6145bb60c08901614424565b6145c760e08a016143f6565b906101008a0192873b15614664575f996145f3976145fe966145e7610272565b9e8f9c8d9b8c9b612bcc565b8b5260048b0161445f565b03915afa91821561465f5761463192614633575b5061462c6001916146265f600692016143f6565b90610ec2565b611f73565b565b614652905f3d8111614658575b61464a8183611b5b565b810190614431565b5f614612565b503d614640565b612c22565b612bc8565b5f632ec8265960e11b81528061468160048201610e6e565b0390fd5b50565b6040906146b16146b894969593966146a760608401985f850190610d6e565b6020830190610d6e565b0190610d6e565b565b9190916146cf6146c95f6119be565b9161032d565b1461483657806146ee6146e86146e361111e565b61065d565b9161065d565b108015614815575b6147e657508061471561470f61470a61174b565b61032d565b9161032d565b1080156147c5575b61479657508061473561472f4261032d565b9161032d565b1115614776578161474e6147488361032d565b9161032d565b1115614758575050565b6147725f928392630e781b2360e31b845260048401612c3e565b0390fd5b42906147925f928392631fbbb8cb60e11b845260048401612c3e565b0390fd5b61479e61174b565b906147c16147aa610503565b5f93849363416a04e960e01b855260048501611982565b0390fd5b50806147e06147da6147d5610503565b61032d565b9161032d565b1161471d565b6147ee61111e565b906148116147fa610d56565b5f9384936315d24a4d60e31b855260048501614688565b0390fd5b508061483061482a614825610d56565b61065d565b9161065d565b116146f6565b5f631e3040fd60e21b81528061484e60048201610e6e565b0390fd5b91602061487392949361486c60408201965f830190610474565b0190610d6e565b565b9050519061488282610330565b565b9060208282031261489d5761489a915f01614875565b90565b61027c565b6040906148cb6148d294969593966148c160608401985f8501906109db565b6020830190610474565b0190610474565b565b6040906148fd61490494969593966148f360608401985f8501906109db565b60208301906109db565b0190610474565b565b90565b5f5260205f2090565b5490565b61491f81614912565b82101561493957614931600191614909565b910201905f90565b61383c565b9190600861495e91029161495860018060a01b0384611d22565b92611d22565b9181191691161790565b919061497e614979614986936118f6565b611caa565b90835461493e565b9055565b90815491680100000000000000008310156149ba57826149b29160016149b895018155614916565b90614968565b565b611b47565b6149d36149ce6149d892611b1a565b6104e4565b61065d565b90565b6149e76149ed9161065d565b9161065d565b019061ffff82116149fa57565b612b66565b60101b90565b90614a1463ffff0000916149ff565b9181191691161790565b90614a33614a2e614a3a92612625565b612641565b8254614a05565b9055565b614a52614a4d600783906118b6565b6118cc565b90614a68614a62600584016118e9565b156102d1565b614e0f5742614a8a614a84614a7f60038601611975565b61032d565b9161032d565b1015614de257614aa6614aa1600784018590611902565b611931565b614dc257614ab660058301613ad9565b614ad3614acd614ac860058601613ab2565b61065d565b9161065d565b1015614d9657614b027f000000000000000000000000000000000000000000000000000000000000000061118f565b602063dd62ed3e918590614b30614b1830612c32565b94614b3b614b24610272565b96879586948594612bcc565b84526004840161315c565b03915afa908115614d91575f91614d63575b5080614b6c614b66614b6160018701611975565b61032d565b9161032d565b10614d355750614b9b7f000000000000000000000000000000000000000000000000000000000000000061118f565b60206323b872dd918590614bd65f614bb230612c32565b95614be1614bc260018b01611975565b614bca610272565b98899788968795612bcc565b8552600485016148d4565b03925af18015614d3057614bfd915f91614d02575b50156102d1565b614cd5576005614c8791614c1f6001614c1a600787018890611902565b611f73565b614c35614c2e60068601614906565b869061498a565b614c5d614c4260016149bf565b614c5784870191614c5283613ad9565b6149db565b90614a1e565b614c7f614c6c60028601611975565b614c7a600987018890611b04565b611ae4565b939201613ad9565b91614cd0614cbe614cb87f9d735d1584e6ebd0c84898edd9f47bc5c56bde317b4cddc437926def6a835a6193610ea6565b936118f6565b93614cc7610272565b91829182610d7b565b0390a3565b50614ce36001839201611975565b90614cfe5f928392630e21dcbb60e11b845260048401612bff565b0390fd5b614d23915060203d8111614d29575b614d1b8183611b5b565b810190612be1565b5f614bf6565b503d614d11565b612c22565b9050614d5f614d48600185939401611975565b5f938493630c95cf2760e11b8552600485016148a2565b0390fd5b614d84915060203d8111614d8a575b614d7c8183611b5b565b810190614884565b5f614b4d565b503d614d72565b612c22565b6005614da3919201613ab2565b90614dbe5f928392630fb5b8fb60e01b845260048401614852565b0390fd5b9050614dde5f928392631a0af6eb60e21b84526004840161193e565b0390fd5b6003614def919201611975565b90614e0b425f93849363370734b160e11b855260048501611982565b0390fd5b614e2a905f91829163d13b267760e01b835260048301610481565b0390fd5b634e487b7160e01b5f52601260045260245ffd5b614e4e614e549161065d565b9161065d565b908115614e5f570490565b614e2e565b614e78614e73614e7d9261065d565b6104e4565b61032d565b90565b614e94614e8f614e99926110ff565b6104e4565b61032d565b90565b614eab614eb19193929361032d565b9261032d565b91614ebd83820261032d565b928184041490151715614ecc57565b612b66565b614edd614ee39161065d565b9161065d565b908115614eee570690565b614e2e565b9190614f1190614f016118b2565b50614f0a6118b2565b508361699b565b91614f39614f34614f2460058401613ad9565b614f2e6002611102565b90614e42565b614e64565b83614f4c614f468361032d565b9161032d565b10614fca57614f70614f6060058401613ad9565b614f6a6002611102565b90614ed1565b614f83614f7d60016149bf565b9161065d565b149081614fae575b50614f9e5750614f9a5f6119be565b9190565b6001614faa9101611975565b9190565b9050614fc3614fbd859261032d565b9161032d565b145f614f8b565b50614fda6001614fea9201611975565b614fe46002614e80565b90614e9c565b9190565b90614ff76118b2565b504261501661501061500b60048601611975565b61032d565b9161032d565b10801561503d575b61502f5761502b91614ef3565b5090565b505061503a5f6119be565b90565b5061505461504f600884018390611902565b611931565b61501e565b606090565b67ffffffffffffffff81116150765760208091020190565b611b47565b9061508d6150888361505e565b611b84565b918252565b369037565b906150bc6150a48361507b565b926020806150b2869361505e565b9201910390615092565b565b67ffffffffffffffff81116150d65760208091020190565b611b47565b906150ed6150e8836150be565b611b84565b918252565b5f5b82811061510057505050565b60209061510b6135c4565b81840152016150f4565b9061513a615122836150db565b9260208061513086936150be565b92019103906150f2565b565b67ffffffffffffffff81116151545760208091020190565b611b47565b9061516b6151668361513c565b611b84565b918252565b369037565b9061519a61518283615159565b92602080615190869361513c565b9201910390615170565b565b67ffffffffffffffff81116151b45760208091020190565b611b47565b906151cb6151c68361519c565b611b84565b918252565b369037565b906151fa6151e2836151b9565b926020806151f0869361519c565b92019103906151d0565b565b61520581612855565b82101561521f5761521760069161288d565b910201905f90565b61383c565b90565b905f929180549061524161523a83611ce5565b80946119f0565b916001811690815f14615293575060011461525c575b505050565b6152699192939450611d0f565b5f905b83821061527f57505001905f8080615257565b60018160209254848601520191019061526c565b92949550505060ff191682528015150201905f8080615257565b60f81b90565b6152bc906152ad565b90565b6152cb6152d0916107b8565b6152b3565b9052565b6152e46152eb9160019493615227565b80926152bf565b0190565b5190565b906152fd826152ef565b81101561530e576020809102010190565b61383c565b9061531d9061155f565b9052565b5190565b9061532f82615321565b811015615340576020809102010190565b61383c565b61534e9061293c565b90565b5190565b9061535f82615351565b811015615370576020809102010190565b61383c565b5190565b9061538382615375565b811015615394576020809102010190565b61383c565b67ffffffffffffffff81116153b15760208091020190565b611b47565b906153c86153c383615399565b611b84565b918252565b6153d76080611b84565b90565b606090565b6153e76153cd565b906020808080856153f66135c4565b8152016154016135c9565b81520161540c612f06565b8152016154176153da565b81525050565b6154256153df565b90565b5f5b82811061543657505050565b60209061544161541d565b818401520161542a565b90615470615458836153b6565b926020806154668693615399565b9201910390615428565b565b9061547c82610b21565b81101561548d576020809102010190565b61383c565b61549a6129ac565b906020808080808080886154ac612f06565b8152016154b7612f0a565b8152016154c26135c4565b8152016154cd6135c9565b8152016154d8612f0e565b8152016154e3612f06565b8152016154ee612f06565b81525050565b6154fc615492565b90565b5f5b82811061550d57505050565b6020906155186154f4565b8184015201615501565b9061554761552f83612876565b9260208061553d8693612859565b92019103906154ff565b565b9061555382610716565b811015615564576020809102010190565b61383c565b9190615573615059565b50615580600b8401612855565b9061558a82615097565b61559383615115565b9261559d81615175565b926155a7826151d5565b6155b0836151d5565b926155ba816151d5565b956155c36118b2565b916155cd5f6119be565b5b806155e16155db8461032d565b9161032d565b1015615862576155fe6155f8600b8e0183906151fc565b50615224565b61560a60018201612896565b61561c61561689610590565b91610590565b14615631575b5061562c906138c2565b6155ce565b806002615696920161566f61564860038401612978565b91615660615654610272565b938492602084016152d4565b60208201810382520382611b5b565b61568161567b82613dcf565b91613e0a565b2061568e8b888391616a52565b9390156102d1565b6157e8575b5081615745916156cd8d6156c86156c061562c98976156ba6001611b1d565b90613870565b879092615379565b611ba6565b6156d96003820161299f565b5f1461574b576156ee600561571a9201611975565b6157158a9161570f859161570a6157058487615379565b611c75565b613870565b92615379565b611ba6565b5b6157408a9161573a6157356157308386615379565b611c75565b6138c2565b92615379565b611ba6565b90615622565b61575e6157598a8490615379565b611c75565b61577b61577561577060048501611975565b61032d565b9161032d565b10155f146157c45761579260046157be9201611975565b6157b98a916157b385916157ae6157a98487615379565b611c75565b611ab8565b92615379565b611ba6565b5b61571b565b506157e36157d15f6119be565b6157de8a91849092615379565b611ba6565b6157bf565b61562c9392509561580961574592976158048d918490926152f3565b615313565b61582c8d600289019061581c8492615345565b6158268383615325565b52615325565b515061584f61583d60038901612978565b61584a8891849092615355565b611c30565b615858816138c2565b969150919261569b565b50929550939598969250966158768861544b565b966158805f6119be565b5b8061589461588e8c61032d565b9161032d565b10156159425761593d906158a9868290615325565b515f6158b68c8490615472565b5101526158e36158cf6158ca898490615355565b611f05565b60206158dc8d8590615472565b5101611c30565b61590d6158f96158f48a8490615379565b611c75565b60406159068d8590615472565b5101611ba6565b61592861592361591e8b8490615379565b611c75565b615522565b60606159358c8490615472565b5101526138c2565b615881565b50945095945095905061595591506151d5565b9261595f5f6119be565b5b8061597361596d8861032d565b9161032d565b1015615a46576159af9061599061598b898390615379565b611c75565b806159a361599d5f6119be565b9161032d565b036159b4575b506138c2565b615960565b6159cb615a40916159c56001611b1d565b90612b7a565b615a3b615a326159e46159df8b8590615379565b611c75565b615a206159f5600b8b0188906151fc565b506060615a038d8890615472565b510151615a108492612a6a565b615a1a8383615549565b52615549565b5150615a2c6001611b1d565b90611b39565b89929092615379565b611ba6565b5f6159a9565b50935050925050565b615a5761375a565b615a70615a6a615a656143e9565b610590565b91610590565b03615a7757565b615a99615a826143e9565b5f91829163118cdaa760e01b8352600483016109e8565b0390fd5b615aa65f612896565b615ab0825f611cad565b90615ae4615ade7f8be0079c531659141344cd1fd0a4f28419497f9722a3daafe3b4186f6b6457e0936118f6565b916118f6565b91615aed610272565b80615af781610e6e565b0390a3565b615b046143cf565b50615b0d613c83565b50615b16612b36565b50602081015191604a60408301519201516008600c021c92919291929190565b9190604083820312615b5e5780615b52615b5b925f8601610344565b93602001610344565b90565b61027c565b615b6f615b759161032d565b9161032d565b908115615b80570490565b614e2e565b615baa615ba192602092615b9881610736565b948580936119f0565b93849101610743565b0190565b615bbe615bc59160209493615b85565b8092611a1e565b0190565b615bdd615bd4610272565b92839283615bae565b03902090565b615bec91615bc9565b90565b90565b615bfc60e0611b84565b90565b5f5260205f2090565b5490565b615c1581615c08565b821015615c2f57615c27600691615bff565b910201905f90565b61383c565b60081b90565b90615c4761ff0091615c34565b9181191691161790565b90615c66615c61615c6d92611f64565b611f70565b8254615c3a565b9055565b90615d1960c06005615d1f94615c945f8201615c8e5f8801611c75565b90611ae4565b615cad60018201615ca760208801611c82565b90611cad565b615cc660028201615cc060408801611ccd565b90611ef9565b615cdf60038201615cd960608801611f05565b90611f37565b615cf860038201615cf260808801611f57565b90615c51565b615d1160048201615d0b60a08801611c75565b90611ae4565b019201611c75565b90611ae4565b565b9190615d3257615d3091615c71565b565b611c62565b9081549168010000000000000000831015615d675782615d5f916001615d6595018155615c0c565b90615d21565b565b611b47565b615d8b615d94602093615d9993615d8281610736565b9384809361204f565b95869101610743565b61074e565b0190565b90615dec94615ddb608094989795615dd1615dc6615de59560a08801908882035f8a0152615d6c565b9a602087019061207b565b60408501906102d6565b6060830190610474565b0190610474565b565b90615e01905f1990602003600802610ed8565b8154169055565b905f91615e1f615e1782611d0f565b928354611e18565b905555565b919290602082105f14615e7d57601f8411600114615e4d57615e47929350611e18565b90555b5b565b5090615e73615e7893600180615e6b615e6586611d0f565b93611d18565b039101611d81565b615e08565b615e4a565b5060019192615e94615e8e83611d18565b91611d18565b9080615e9f86611d0f565b0190601f841680615ed5575b50808311615ec2575b505050600202179055615e4b565b615ecd920390611d81565b5f8080615eb4565b615ee190868403615dee565b5f615eab565b929091680100000000000000008211615f47576020115f14615f3857602081105f14615f1c57615f1691611e18565b90555b5b565b60019160ff1916615f2c84611d0f565b55600202019055615f19565b60019150600202019055615f1a565b611b47565b908154615f5881611ce5565b90818311615f81575b818310615f6f575b50505050565b615f7893615e24565b5f808080615f69565b615f8d83838387615ee7565b615f61565b5f615f9c91615f4c565b565b905f03615fb057615fae90615f92565b565b611c62565b60065f91615fc583808301611d6d565b615fd28360018301611d6d565b826002820155615fe58360038301615f9e565b826004820155615ff88360058301611d6d565b0155565b905f0361600e5761600c90615fb5565b565b611c62565b906160629461605160809498979561604761603c61605b9560a08801908882035f8a0152615d6c565b9a602087019061207b565b6040850190610474565b60608301906102d6565b0190610474565b565b906160729190810190615b36565b9061608761608260088390611c4c565b6136eb565b906160935f8301611c75565b6160a561609f5f6119be565b9161032d565b1461649757826160bd6160b75f6119be565b9161032d565b1461647b576160ca6118b2565b506160d760c08301611f57565b5f1461644f576161046160fd6160ef60a08501611c75565b6160f7610de4565b90614e9c565b8490615b63565b5b806161186161125f6119be565b9161032d565b146164255761613c616137600761613160208701611c75565b906118b6565b6118cc565b61615161614b600583016118e9565b156102d1565b6163fb5761616160c08501611f57565b5f146163c1576161aa826161a461619561618a600a860161618460408b01611c82565b906119da565b606089015190615be3565b9161619f83611975565b613870565b90611ae4565b5b600b016161b790615bef565b835f016161c390611c75565b846040016161d090611c82565b8560600151866080016161e290611f05565b8760c0016161ef90611f57565b908860a0016161fd90611c75565b928794616208615bf2565b965f88019061621691611ba6565b602087019061622491611bb4565b604086019061623291611c2d565b606085019061624091611c30565b608084019061624e91611c3e565b60a083019061625c91611ba6565b60c082019061626a91611ba6565b61627391615d37565b8260200161628090611c75565b835f0161628c90611c75565b8460400161629990611c82565b918560600151866080016162ac90611f05565b8760c0016162b990611f57565b918860a0016162c790611c75565b967e0459db05da92eda8433fd7ed04969dd929b6309df88672c26f381c77bd4cbc946162f290610ea6565b956162fc90610ea6565b96616306906118f6565b9761630f610272565b94859461631c9486615d9d565b0390a460088161632b91611c4c565b5f61633591615ffc565b8160400161634290611c82565b9180606001518160800161635590611f05565b908260a00161636390611c75565b9260c00161637090611f57565b957fc9ecf85f62f6c5e12837a3a6dc500b91fb8e647c685f2b34fd9429eb34f962739461639c90610ea6565b956163a6906118f6565b966163af610272565b9485946163bc9486616013565b0390a3565b6163f6826163f06163e1600985016163db60408a01611c82565b90611b04565b916163eb83611975565b613870565b90611ae4565b6161ab565b61642161640a60208601611c75565b5f91829163d13b267760e01b835260048301610481565b0390fd5b61643160a08401611c75565b61644b5f9283926399fab93b60e01b845260048401612c3e565b0390fd5b61647661646861646160a08501611c75565b8590614e9c565b616470610de4565b90615b63565b616105565b5f6304ac495360e21b81528061649360048201610e6e565b0390fd5b6164b2905f918291631c47a16f60e11b835260048301610481565b0390fd5b67ffffffffffffffff81116164ce5760208091020190565b611b47565b906164e56164e0836164b6565b611b84565b918252565b369037565b906165146164fc836164d3565b9260208061650a86936164b6565b92019103906164ea565b565b61651f816124cf565b821015616539576165316001916124dc565b910201905f90565b61383c565b61654e9060086165539302610ed8565b6124e5565b90565b90616561915461653e565b90565b9061656d6124ca565b5061657a600683016124cf565b90616584826164ef565b9061658e5f6119be565b5b806165a261659c8661032d565b9161032d565b10156165e2576165dd906165d86165c66165c0600689018490616516565b90616556565b6165d38691849092613850565b611bb4565b6138c2565b61658f565b50926165ed5f6119be565b5b806166016165fb8661032d565b9161032d565b101561670857809461661d826166176001611b1d565b90613870565b5b8061663161662b8861032d565b9161032d565b1015616687576166678461664e616649888590613850565b611c82565b61666161665c898c90613850565b611c82565b91616ad6565b61667a575b616675906138c2565b61661e565b955061667586905061666c565b5094906166ad91806166a161669b8461032d565b9161032d565b036166b2575b506138c2565b6165ee565b616702906166fd6166cc6166c7888690613850565b611c82565b6166f46166e26166dd8a8690613850565b611c82565b6166ef8a91889092613850565b611bb4565b87929092613850565b611bb4565b5f6166a7565b5050919050565b606090565b9061672661672183611bc6565b611b84565b918252565b5f7f3031323334353637383961626364656600000000000000000000000000000000910152565b61675c6010616714565b906167696020830161672b565b565b616773616752565b90565b61677e61676b565b90565b90565b60ff1690565b61679e6167996167a392616781565b6104e4565b616784565b90565b6167c5906167bf6167b96167ca94616784565b91613df4565b90610ed8565b613df4565b90565b60f81c90565b6167e76167e26167ec92616784565b6104e4565b616784565b90565b6167fb616800916167cd565b6167d3565b90565b61681761681261681c92616784565b6104e4565b61032d565b90565b90565b61683661683161683b9261681f565b6152ad565b613df4565b90565b9061684761670f565b5061686c61686761685784613dcf565b6168616002614e80565b90614e9c565b613da8565b6168755f6119be565b5b8061689161688b61688687613dcf565b61032d565b9161032d565b10156169945761698f906168ea6168e56168a9616776565b6168df6168da6168d56168c56168c08c8990613dd3565b613dfd565b6168cf600461678a565b906167a6565b6167ef565b616803565b90613dd3565b613dfd565b61690c8491616903846168fd6002614e80565b90614e9c565b905f1a92613dd3565b5361695461694f61691b616776565b61694961694461693461692f8b8890613dd3565b613dfd565b61693e600f616822565b166167ef565b616803565b90613dd3565b613dfd565b61698984916169806169708561696a6002614e80565b90614e9c565b61697a6001611b1d565b90613870565b905f1a92613dd3565b536138c2565b616876565b5090915090565b906169a46118b2565b506169ae82616564565b6169b781610572565b926169c15f6119be565b5b806169d56169cf8761032d565b9161032d565b1015616a1b576169ee6169e9848390613850565b611c82565b616a006169fa86610590565b91610590565b14616a1357616a0e906138c2565b6169c2565b935050505090565b83616a275f8401611975565b616a415f928392636d9dcc0160e01b84526004840161193e565b0390fd5b616a4f905161155f565b90565b92919092616a5e61185c565b616a666118b2565b616a6f5f6119be565b5b80616a83616a7d8961032d565b9161032d565b1015616acd57616a9c616a978583906152f3565b616a45565b616aae616aa88761155f565b9161155f565b14616ac157616abc906138c2565b616a70565b95505050505060019190565b50939250935050565b616ade61185c565b50616b0a616b056009616afc616af78286018790611b04565b611975565b93018590611b04565b611975565b9080616b1e616b188461032d565b9161032d565b11616b5857616b30616b36919261032d565b9161032d565b10616b5257616b48616b4e9192610590565b91610590565b1090565b50505f90565b5050505060019056fea26469706673582212202fd2229a78afd54121d3bbd1af63cc7e4870321736d7a629339c8dbc22e7b2a364736f6c63430008210033",
        "linkReferences": {}
    },
    "methodIdentifiers": {
        "EXECUTION_PRICE_PRECISION()": "603b6531",
        "MAX_PLAYERS()": "4411b3eb",
        "MAX_STARTING_WIP_BALANCE()": "106ad267",
        "MIN_PLAYERS()": "85f07bbe",
        "MIN_STARTING_WIP_BALANCE()": "eb0df8f0",
        "USDC()": "89a30271",
        "claimGame(uint256)": "39236bef",
        "createGame(uint256,uint256,uint16,uint256,uint256)": "1f303858",
        "getExpectedAuthor()": "3397cf67",
        "getExpectedWorkflowId()": "f5c793ef",
        "getExpectedWorkflowName()": "a619d818",
        "getForwarderAddress()": "3441856f",
        "getGame(uint256)": "a2f77bcc",
        "getGamePlayers(uint256)": "15a40f49",
        "getGameRanking(uint256)": "8f130782",
        "getGameTradeCount(uint256)": "cdbe6601",
        "getGameTrades(uint256)": "209bfa8d",
        "getPlayerPortfolio(uint256,address)": "396d525a",
        "getTotalSettlementRequestsCreated()": "36968d62",
        "getTradeToSettle(uint256)": "82028cf3",
        "hasJoined(uint256,address)": "68194719",
        "joinGame(uint256)": "efaa55a0",
        "nextGameId()": "b135bbb0",
        "nextTradeToSettleId()": "da601a30",
        "nullifierUsed(uint256)": "79f95ee9",
        "onReport(bytes,bytes)": "805f2132",
        "owner()": "8da5cb5b",
        "renounceOwnership()": "715018a6",
        "setExpectedAuthor(address)": "d60c884b",
        "setExpectedWorkflowId(bytes32)": "c3c44ac2",
        "setExpectedWorkflowName(string)": "bc1fc27a",
        "setForwarderAddress(address)": "d777cc6d",
        "submitTrade(uint256,string,uint8,bool,uint256,(uint256,uint256,uint64,uint256,uint256,uint64,uint64,uint256,uint256[5]))": "09f25c68",
        "supportsInterface(bytes4)": "01ffc9a7",
        "transferOwnership(address)": "f2fde38b",
        "verifier()": "2b7ac3f3",
        "worldIdVerificationEnabled()": "d1e7f094"
    },
    "id": 26
}